{
  "_format": "hh-sol-artifact-1",
  "contractName": "HackathonPlatform",
  "sourceName": "contracts/HackathonPlatform.sol",
  "abi": [
    {
      "inputs": [
        {
          "internalType": "string",
          "name": "baseURI",
          "type": "string"
        }
      ],
      "stateMutability": "nonpayable",
      "type": "constructor"
    },
    {
      "anonymous": false,
      "inputs": [
        {
          "indexed": true,
          "internalType": "address",
          "name": "owner",
          "type": "address"
        },
        {
          "indexed": true,
          "internalType": "address",
          "name": "approved",
          "type": "address"
        },
        {
          "indexed": true,
          "internalType": "uint256",
          "name": "tokenId",
          "type": "uint256"
        }
      ],
      "name": "Approval",
      "type": "event"
    },
    {
      "anonymous": false,
      "inputs": [
        {
          "indexed": true,
          "internalType": "address",
          "name": "owner",
          "type": "address"
        },
        {
          "indexed": true,
          "internalType": "address",
          "name": "operator",
          "type": "address"
        },
        {
          "indexed": false,
          "internalType": "bool",
          "name": "approved",
          "type": "bool"
        }
      ],
      "name": "ApprovalForAll",
      "type": "event"
    },
    {
      "anonymous": false,
      "inputs": [
        {
          "indexed": false,
          "internalType": "uint256",
          "name": "_fromTokenId",
          "type": "uint256"
        },
        {
          "indexed": false,
          "internalType": "uint256",
          "name": "_toTokenId",
          "type": "uint256"
        }
      ],
      "name": "BatchMetadataUpdate",
      "type": "event"
    },
    {
      "anonymous": false,
      "inputs": [
        {
          "indexed": true,
          "internalType": "uint256",
          "name": "eventId",
          "type": "uint256"
        },
        {
          "indexed": false,
          "internalType": "string",
          "name": "name",
          "type": "string"
        },
        {
          "indexed": false,
          "internalType": "address",
          "name": "organizer",
          "type": "address"
        }
      ],
      "name": "HackathonCreated",
      "type": "event"
    },
    {
      "anonymous": false,
      "inputs": [
        {
          "indexed": true,
          "internalType": "uint256",
          "name": "eventId",
          "type": "uint256"
        }
      ],
      "name": "HackathonPublished",
      "type": "event"
    },
    {
      "anonymous": false,
      "inputs": [
        {
          "indexed": true,
          "internalType": "uint256",
          "name": "eventId",
          "type": "uint256"
        },
        {
          "indexed": false,
          "internalType": "uint256",
          "name": "teamId",
          "type": "uint256"
        },
        {
          "indexed": false,
          "internalType": "address",
          "name": "member",
          "type": "address"
        }
      ],
      "name": "MemberJoined",
      "type": "event"
    },
    {
      "anonymous": false,
      "inputs": [
        {
          "indexed": false,
          "internalType": "uint256",
          "name": "_tokenId",
          "type": "uint256"
        }
      ],
      "name": "MetadataUpdate",
      "type": "event"
    },
    {
      "anonymous": false,
      "inputs": [
        {
          "indexed": true,
          "internalType": "uint256",
          "name": "eventId",
          "type": "uint256"
        },
        {
          "indexed": false,
          "internalType": "uint256",
          "name": "teamId",
          "type": "uint256"
        },
        {
          "indexed": false,
          "internalType": "address",
          "name": "recipient",
          "type": "address"
        },
        {
          "indexed": false,
          "internalType": "uint256",
          "name": "tokenId",
          "type": "uint256"
        },
        {
          "indexed": false,
          "internalType": "uint256",
          "name": "rank",
          "type": "uint256"
        }
      ],
      "name": "NFTAwarded",
      "type": "event"
    },
    {
      "anonymous": false,
      "inputs": [
        {
          "indexed": true,
          "internalType": "uint256",
          "name": "eventId",
          "type": "uint256"
        },
        {
          "indexed": false,
          "internalType": "uint256",
          "name": "teamId",
          "type": "uint256"
        },
        {
          "indexed": false,
          "internalType": "address",
          "name": "recipient",
          "type": "address"
        },
        {
          "indexed": false,
          "internalType": "uint256",
          "name": "amount",
          "type": "uint256"
        }
      ],
      "name": "PrizeDistributed",
      "type": "event"
    },
    {
      "anonymous": false,
      "inputs": [
        {
          "indexed": true,
          "internalType": "uint256",
          "name": "eventId",
          "type": "uint256"
        },
        {
          "indexed": false,
          "internalType": "uint256[]",
          "name": "rankedTeamIds",
          "type": "uint256[]"
        }
      ],
      "name": "ResultsFinalized",
      "type": "event"
    },
    {
      "anonymous": false,
      "inputs": [
        {
          "indexed": true,
          "internalType": "bytes32",
          "name": "role",
          "type": "bytes32"
        },
        {
          "indexed": true,
          "internalType": "bytes32",
          "name": "previousAdminRole",
          "type": "bytes32"
        },
        {
          "indexed": true,
          "internalType": "bytes32",
          "name": "newAdminRole",
          "type": "bytes32"
        }
      ],
      "name": "RoleAdminChanged",
      "type": "event"
    },
    {
      "anonymous": false,
      "inputs": [
        {
          "indexed": true,
          "internalType": "bytes32",
          "name": "role",
          "type": "bytes32"
        },
        {
          "indexed": true,
          "internalType": "address",
          "name": "account",
          "type": "address"
        },
        {
          "indexed": true,
          "internalType": "address",
          "name": "sender",
          "type": "address"
        }
      ],
      "name": "RoleGranted",
      "type": "event"
    },
    {
      "anonymous": false,
      "inputs": [
        {
          "indexed": true,
          "internalType": "bytes32",
          "name": "role",
          "type": "bytes32"
        },
        {
          "indexed": true,
          "internalType": "address",
          "name": "account",
          "type": "address"
        },
        {
          "indexed": true,
          "internalType": "address",
          "name": "sender",
          "type": "address"
        }
      ],
      "name": "RoleRevoked",
      "type": "event"
    },
    {
      "anonymous": false,
      "inputs": [
        {
          "indexed": true,
          "internalType": "uint256",
          "name": "eventId",
          "type": "uint256"
        },
        {
          "indexed": false,
          "internalType": "uint256",
          "name": "teamId",
          "type": "uint256"
        },
        {
          "indexed": false,
          "internalType": "string",
          "name": "name",
          "type": "string"
        },
        {
          "indexed": false,
          "internalType": "address",
          "name": "teamLeader",
          "type": "address"
        }
      ],
      "name": "TeamRegistered",
      "type": "event"
    },
    {
      "anonymous": false,
      "inputs": [
        {
          "indexed": true,
          "internalType": "address",
          "name": "from",
          "type": "address"
        },
        {
          "indexed": true,
          "internalType": "address",
          "name": "to",
          "type": "address"
        },
        {
          "indexed": true,
          "internalType": "uint256",
          "name": "tokenId",
          "type": "uint256"
        }
      ],
      "name": "Transfer",
      "type": "event"
    },
    {
      "anonymous": false,
      "inputs": [
        {
          "indexed": true,
          "internalType": "uint256",
          "name": "eventId",
          "type": "uint256"
        },
        {
          "indexed": false,
          "internalType": "address",
          "name": "voter",
          "type": "address"
        },
        {
          "indexed": false,
          "internalType": "uint256",
          "name": "teamId",
          "type": "uint256"
        }
      ],
      "name": "VoteCast",
      "type": "event"
    },
    {
      "anonymous": false,
      "inputs": [
        {
          "indexed": true,
          "internalType": "uint256",
          "name": "eventId",
          "type": "uint256"
        },
        {
          "indexed": false,
          "internalType": "bool",
          "name": "isOpen",
          "type": "bool"
        }
      ],
      "name": "VotingStateChanged",
      "type": "event"
    },
    {
      "inputs": [],
      "name": "ADMIN_ROLE",
      "outputs": [
        {
          "internalType": "bytes32",
          "name": "",
          "type": "bytes32"
        }
      ],
      "stateMutability": "view",
      "type": "function"
    },
    {
      "inputs": [],
      "name": "DEFAULT_ADMIN_ROLE",
      "outputs": [
        {
          "internalType": "bytes32",
          "name": "",
          "type": "bytes32"
        }
      ],
      "stateMutability": "view",
      "type": "function"
    },
    {
      "inputs": [],
      "name": "ORGANIZER_ROLE",
      "outputs": [
        {
          "internalType": "bytes32",
          "name": "",
          "type": "bytes32"
        }
      ],
      "stateMutability": "view",
      "type": "function"
    },
    {
      "inputs": [
        {
          "internalType": "address",
          "name": "account",
          "type": "address"
        }
      ],
      "name": "addOrganizer",
      "outputs": [],
      "stateMutability": "nonpayable",
      "type": "function"
    },
    {
      "inputs": [
        {
          "internalType": "address",
          "name": "to",
          "type": "address"
        },
        {
          "internalType": "uint256",
          "name": "tokenId",
          "type": "uint256"
        }
      ],
      "name": "approve",
      "outputs": [],
      "stateMutability": "nonpayable",
      "type": "function"
    },
    {
      "inputs": [
        {
          "internalType": "uint256",
          "name": "eventId",
          "type": "uint256"
        },
        {
          "internalType": "uint256",
          "name": "teamId",
          "type": "uint256"
        }
      ],
      "name": "awardNFTs",
      "outputs": [],
      "stateMutability": "nonpayable",
      "type": "function"
    },
    {
      "inputs": [
        {
          "internalType": "address",
          "name": "owner",
          "type": "address"
        }
      ],
      "name": "balanceOf",
      "outputs": [
        {
          "internalType": "uint256",
          "name": "",
          "type": "uint256"
        }
      ],
      "stateMutability": "view",
      "type": "function"
    },
    {
      "inputs": [
        {
          "internalType": "uint256",
          "name": "eventId",
          "type": "uint256"
        }
      ],
      "name": "cancelHackathon",
      "outputs": [],
      "stateMutability": "nonpayable",
      "type": "function"
    },
    {
      "inputs": [
        {
          "internalType": "uint256",
          "name": "eventId",
          "type": "uint256"
        },
        {
          "internalType": "uint256",
          "name": "teamId",
          "type": "uint256"
        }
      ],
      "name": "castVote",
      "outputs": [],
      "stateMutability": "nonpayable",
      "type": "function"
    },
    {
      "inputs": [
        {
          "internalType": "string",
          "name": "name",
          "type": "string"
        },
        {
          "internalType": "string",
          "name": "description",
          "type": "string"
        },
        {
          "internalType": "uint256",
          "name": "prizePool",
          "type": "uint256"
        },
        {
          "internalType": "uint8",
          "name": "firstPrizePercent",
          "type": "uint8"
        },
        {
          "internalType": "uint8",
          "name": "secondPrizePercent",
          "type": "uint8"
        },
        {
          "internalType": "uint8",
          "name": "thirdPrizePercent",
          "type": "uint8"
        },
        {
          "internalType": "uint256",
          "name": "maxTeamSize",
          "type": "uint256"
        },
        {
          "internalType": "uint256",
          "name": "maxTeams",
          "type": "uint256"
        },
        {
          "internalType": "uint256",
          "name": "startDate",
          "type": "uint256"
        },
        {
          "internalType": "uint256",
          "name": "endDate",
          "type": "uint256"
        }
      ],
      "name": "createHackathon",
      "outputs": [
        {
          "internalType": "uint256",
          "name": "",
          "type": "uint256"
        }
      ],
      "stateMutability": "payable",
      "type": "function"
    },
    {
      "inputs": [
        {
          "internalType": "uint256",
          "name": "eventId",
          "type": "uint256"
        },
        {
          "internalType": "uint256",
          "name": "teamId",
          "type": "uint256"
        }
      ],
      "name": "distributePrize",
      "outputs": [],
      "stateMutability": "nonpayable",
      "type": "function"
    },
    {
      "inputs": [
        {
          "internalType": "uint256",
          "name": "",
          "type": "uint256"
        },
        {
          "internalType": "uint256",
          "name": "",
          "type": "uint256"
        }
      ],
      "name": "finalRankings",
      "outputs": [
        {
          "internalType": "uint256",
          "name": "",
          "type": "uint256"
        }
      ],
      "stateMutability": "view",
      "type": "function"
    },
    {
      "inputs": [
        {
          "internalType": "uint256",
          "name": "eventId",
          "type": "uint256"
        },
        {
          "internalType": "bool",
          "name": "useManualRanking",
          "type": "bool"
        },
        {
          "internalType": "uint256[]",
          "name": "manualTopTeamIds",
          "type": "uint256[]"
        }
      ],
      "name": "finalizeResults",
      "outputs": [],
      "stateMutability": "nonpayable",
      "type": "function"
    },
    {
      "inputs": [
        {
          "internalType": "uint256",
          "name": "tokenId",
          "type": "uint256"
        }
      ],
      "name": "getApproved",
      "outputs": [
        {
          "internalType": "address",
          "name": "",
          "type": "address"
        }
      ],
      "stateMutability": "view",
      "type": "function"
    },
    {
      "inputs": [
        {
          "internalType": "uint256",
          "name": "eventId",
          "type": "uint256"
        }
      ],
      "name": "getEventDetails",
      "outputs": [
        {
          "internalType": "string",
          "name": "name",
          "type": "string"
        },
        {
          "internalType": "string",
          "name": "description",
          "type": "string"
        },
        {
          "internalType": "uint256",
          "name": "prizePool",
          "type": "uint256"
        },
        {
          "internalType": "uint256",
          "name": "startDate",
          "type": "uint256"
        },
        {
          "internalType": "uint256",
          "name": "endDate",
          "type": "uint256"
        },
        {
          "internalType": "bool",
          "name": "isActive",
          "type": "bool"
        },
        {
          "internalType": "bool",
          "name": "votingOpen",
          "type": "bool"
        },
        {
          "internalType": "bool",
          "name": "resultsFinalized",
          "type": "bool"
        },
        {
          "internalType": "uint256",
          "name": "teamCount",
          "type": "uint256"
        },
        {
          "internalType": "uint256",
          "name": "maxTeams",
          "type": "uint256"
        }
      ],
      "stateMutability": "view",
      "type": "function"
    },
    {
      "inputs": [
        {
          "internalType": "uint256",
          "name": "eventId",
          "type": "uint256"
        }
      ],
      "name": "getEventRankings",
      "outputs": [
        {
          "internalType": "uint256[]",
          "name": "",
          "type": "uint256[]"
        }
      ],
      "stateMutability": "view",
      "type": "function"
    },
    {
      "inputs": [
        {
          "internalType": "uint256",
          "name": "eventId",
          "type": "uint256"
        }
      ],
      "name": "getEventTeams",
      "outputs": [
        {
          "internalType": "uint256[]",
          "name": "",
          "type": "uint256[]"
        }
      ],
      "stateMutability": "view",
      "type": "function"
    },
    {
      "inputs": [
        {
          "internalType": "uint256",
          "name": "eventId",
          "type": "uint256"
        },
        {
          "internalType": "address",
          "name": "participant",
          "type": "address"
        }
      ],
      "name": "getParticipantTeam",
      "outputs": [
        {
          "internalType": "uint256",
          "name": "",
          "type": "uint256"
        }
      ],
      "stateMutability": "view",
      "type": "function"
    },
    {
      "inputs": [
        {
          "internalType": "bytes32",
          "name": "role",
          "type": "bytes32"
        }
      ],
      "name": "getRoleAdmin",
      "outputs": [
        {
          "internalType": "bytes32",
          "name": "",
          "type": "bytes32"
        }
      ],
      "stateMutability": "view",
      "type": "function"
    },
    {
      "inputs": [
        {
          "internalType": "uint256",
          "name": "eventId",
          "type": "uint256"
        },
        {
          "internalType": "uint256",
          "name": "teamId",
          "type": "uint256"
        }
      ],
      "name": "getTeamDetails",
      "outputs": [
        {
          "internalType": "string",
          "name": "name",
          "type": "string"
        },
        {
          "internalType": "address",
          "name": "teamLeader",
          "type": "address"
        },
        {
          "internalType": "uint256",
          "name": "memberCount",
          "type": "uint256"
        },
        {
          "internalType": "uint256",
          "name": "votes",
          "type": "uint256"
        },
        {
          "internalType": "uint256",
          "name": "rank",
          "type": "uint256"
        },
        {
          "internalType": "uint256",
          "name": "prizeAmount",
          "type": "uint256"
        },
        {
          "internalType": "bool",
          "name": "prizeDistributed",
          "type": "bool"
        }
      ],
      "stateMutability": "view",
      "type": "function"
    },
    {
      "inputs": [
        {
          "internalType": "uint256",
          "name": "eventId",
          "type": "uint256"
        },
        {
          "internalType": "uint256",
          "name": "teamId",
          "type": "uint256"
        }
      ],
      "name": "getTeamMembers",
      "outputs": [
        {
          "internalType": "address[]",
          "name": "",
          "type": "address[]"
        }
      ],
      "stateMutability": "view",
      "type": "function"
    },
    {
      "inputs": [
        {
          "internalType": "bytes32",
          "name": "role",
          "type": "bytes32"
        },
        {
          "internalType": "address",
          "name": "account",
          "type": "address"
        }
      ],
      "name": "grantRole",
      "outputs": [],
      "stateMutability": "nonpayable",
      "type": "function"
    },
    {
      "inputs": [
        {
          "internalType": "uint256",
          "name": "",
          "type": "uint256"
        }
      ],
      "name": "hackathonEvents",
      "outputs": [
        {
          "internalType": "uint256",
          "name": "id",
          "type": "uint256"
        },
        {
          "internalType": "address",
          "name": "organizer",
          "type": "address"
        },
        {
          "internalType": "string",
          "name": "name",
          "type": "string"
        },
        {
          "internalType": "string",
          "name": "description",
          "type": "string"
        },
        {
          "internalType": "uint256",
          "name": "prizePool",
          "type": "uint256"
        },
        {
          "internalType": "uint256",
          "name": "firstPrize",
          "type": "uint256"
        },
        {
          "internalType": "uint256",
          "name": "secondPrize",
          "type": "uint256"
        },
        {
          "internalType": "uint256",
          "name": "thirdPrize",
          "type": "uint256"
        },
        {
          "internalType": "uint256",
          "name": "maxTeamSize",
          "type": "uint256"
        },
        {
          "internalType": "uint256",
          "name": "maxTeams",
          "type": "uint256"
        },
        {
          "internalType": "uint256",
          "name": "teamCount",
          "type": "uint256"
        },
        {
          "internalType": "uint256",
          "name": "startDate",
          "type": "uint256"
        },
        {
          "internalType": "uint256",
          "name": "endDate",
          "type": "uint256"
        },
        {
          "internalType": "bool",
          "name": "isActive",
          "type": "bool"
        },
        {
          "internalType": "bool",
          "name": "votingOpen",
          "type": "bool"
        },
        {
          "internalType": "bool",
          "name": "resultsFinalized",
          "type": "bool"
        },
        {
          "internalType": "bool",
          "name": "isPublished",
          "type": "bool"
        }
      ],
      "stateMutability": "view",
      "type": "function"
    },
    {
      "inputs": [
        {
          "internalType": "uint256",
          "name": "eventId",
          "type": "uint256"
        },
        {
          "internalType": "address",
          "name": "participant",
          "type": "address"
        }
      ],
      "name": "hasParticipantVoted",
      "outputs": [
        {
          "internalType": "bool",
          "name": "",
          "type": "bool"
        }
      ],
      "stateMutability": "view",
      "type": "function"
    },
    {
      "inputs": [
        {
          "internalType": "uint256",
          "name": "",
          "type": "uint256"
        },
        {
          "internalType": "address",
          "name": "",
          "type": "address"
        }
      ],
      "name": "hasRegistered",
      "outputs": [
        {
          "internalType": "bool",
          "name": "",
          "type": "bool"
        }
      ],
      "stateMutability": "view",
      "type": "function"
    },
    {
      "inputs": [
        {
          "internalType": "bytes32",
          "name": "role",
          "type": "bytes32"
        },
        {
          "internalType": "address",
          "name": "account",
          "type": "address"
        }
      ],
      "name": "hasRole",
      "outputs": [
        {
          "internalType": "bool",
          "name": "",
          "type": "bool"
        }
      ],
      "stateMutability": "view",
      "type": "function"
    },
    {
      "inputs": [
        {
          "internalType": "uint256",
          "name": "",
          "type": "uint256"
        },
        {
          "internalType": "address",
          "name": "",
          "type": "address"
        }
      ],
      "name": "hasVoted",
      "outputs": [
        {
          "internalType": "bool",
          "name": "",
          "type": "bool"
        }
      ],
      "stateMutability": "view",
      "type": "function"
    },
    {
      "inputs": [
        {
          "internalType": "address",
          "name": "owner",
          "type": "address"
        },
        {
          "internalType": "address",
          "name": "operator",
          "type": "address"
        }
      ],
      "name": "isApprovedForAll",
      "outputs": [
        {
          "internalType": "bool",
          "name": "",
          "type": "bool"
        }
      ],
      "stateMutability": "view",
      "type": "function"
    },
    {
      "inputs": [
        {
          "internalType": "uint256",
          "name": "eventId",
          "type": "uint256"
        },
        {
          "internalType": "uint256",
          "name": "teamId",
          "type": "uint256"
        }
      ],
      "name": "joinTeam",
      "outputs": [],
      "stateMutability": "nonpayable",
      "type": "function"
    },
    {
      "inputs": [],
      "name": "name",
      "outputs": [
        {
          "internalType": "string",
          "name": "",
          "type": "string"
        }
      ],
      "stateMutability": "view",
      "type": "function"
    },
    {
      "inputs": [
        {
          "internalType": "uint256",
          "name": "tokenId",
          "type": "uint256"
        }
      ],
      "name": "ownerOf",
      "outputs": [
        {
          "internalType": "address",
          "name": "",
          "type": "address"
        }
      ],
      "stateMutability": "view",
      "type": "function"
    },
    {
      "inputs": [
        {
          "internalType": "uint256",
          "name": "",
          "type": "uint256"
        },
        {
          "internalType": "address",
          "name": "",
          "type": "address"
        }
      ],
      "name": "participantToTeam",
      "outputs": [
        {
          "internalType": "uint256",
          "name": "",
          "type": "uint256"
        }
      ],
      "stateMutability": "view",
      "type": "function"
    },
    {
      "inputs": [
        {
          "internalType": "uint256",
          "name": "eventId",
          "type": "uint256"
        }
      ],
      "name": "publishHackathon",
      "outputs": [],
      "stateMutability": "nonpayable",
      "type": "function"
    },
    {
      "inputs": [
        {
          "internalType": "uint256",
          "name": "eventId",
          "type": "uint256"
        },
        {
          "internalType": "string",
          "name": "teamName",
          "type": "string"
        }
      ],
      "name": "registerTeam",
      "outputs": [
        {
          "internalType": "uint256",
          "name": "",
          "type": "uint256"
        }
      ],
      "stateMutability": "nonpayable",
      "type": "function"
    },
    {
      "inputs": [
        {
          "internalType": "address",
          "name": "account",
          "type": "address"
        }
      ],
      "name": "removeOrganizer",
      "outputs": [],
      "stateMutability": "nonpayable",
      "type": "function"
    },
    {
      "inputs": [
        {
          "internalType": "bytes32",
          "name": "role",
          "type": "bytes32"
        },
        {
          "internalType": "address",
          "name": "account",
          "type": "address"
        }
      ],
      "name": "renounceRole",
      "outputs": [],
      "stateMutability": "nonpayable",
      "type": "function"
    },
    {
      "inputs": [
        {
          "internalType": "bytes32",
          "name": "role",
          "type": "bytes32"
        },
        {
          "internalType": "address",
          "name": "account",
          "type": "address"
        }
      ],
      "name": "revokeRole",
      "outputs": [],
      "stateMutability": "nonpayable",
      "type": "function"
    },
    {
      "inputs": [
        {
          "internalType": "address",
          "name": "from",
          "type": "address"
        },
        {
          "internalType": "address",
          "name": "to",
          "type": "address"
        },
        {
          "internalType": "uint256",
          "name": "tokenId",
          "type": "uint256"
        }
      ],
      "name": "safeTransferFrom",
      "outputs": [],
      "stateMutability": "nonpayable",
      "type": "function"
    },
    {
      "inputs": [
        {
          "internalType": "address",
          "name": "from",
          "type": "address"
        },
        {
          "internalType": "address",
          "name": "to",
          "type": "address"
        },
        {
          "internalType": "uint256",
          "name": "tokenId",
          "type": "uint256"
        },
        {
          "internalType": "bytes",
          "name": "data",
          "type": "bytes"
        }
      ],
      "name": "safeTransferFrom",
      "outputs": [],
      "stateMutability": "nonpayable",
      "type": "function"
    },
    {
      "inputs": [
        {
          "internalType": "address",
          "name": "operator",
          "type": "address"
        },
        {
          "internalType": "bool",
          "name": "approved",
          "type": "bool"
        }
      ],
      "name": "setApprovalForAll",
      "outputs": [],
      "stateMutability": "nonpayable",
      "type": "function"
    },
    {
      "inputs": [
        {
          "internalType": "string",
          "name": "baseURI",
          "type": "string"
        }
      ],
      "name": "setBaseURI",
      "outputs": [],
      "stateMutability": "nonpayable",
      "type": "function"
    },
    {
      "inputs": [
        {
          "internalType": "uint256",
          "name": "eventId",
          "type": "uint256"
        },
        {
          "internalType": "bool",
          "name": "votingState",
          "type": "bool"
        }
      ],
      "name": "setVotingState",
      "outputs": [],
      "stateMutability": "nonpayable",
      "type": "function"
    },
    {
      "inputs": [
        {
          "internalType": "bytes4",
          "name": "interfaceId",
          "type": "bytes4"
        }
      ],
      "name": "supportsInterface",
      "outputs": [
        {
          "internalType": "bool",
          "name": "",
          "type": "bool"
        }
      ],
      "stateMutability": "view",
      "type": "function"
    },
    {
      "inputs": [],
      "name": "symbol",
      "outputs": [
        {
          "internalType": "string",
          "name": "",
          "type": "string"
        }
      ],
      "stateMutability": "view",
      "type": "function"
    },
    {
      "inputs": [
        {
          "internalType": "uint256",
          "name": "",
          "type": "uint256"
        },
        {
          "internalType": "uint256",
          "name": "",
          "type": "uint256"
        },
        {
          "internalType": "address",
          "name": "",
          "type": "address"
        }
      ],
      "name": "teamMembers",
      "outputs": [
        {
          "internalType": "bool",
          "name": "",
          "type": "bool"
        }
      ],
      "stateMutability": "view",
      "type": "function"
    },
    {
      "inputs": [
        {
          "internalType": "uint256",
          "name": "",
          "type": "uint256"
        },
        {
          "internalType": "uint256",
          "name": "",
          "type": "uint256"
        },
        {
          "internalType": "uint256",
          "name": "",
          "type": "uint256"
        }
      ],
      "name": "teamMembersList",
      "outputs": [
        {
          "internalType": "address",
          "name": "",
          "type": "address"
        }
      ],
      "stateMutability": "view",
      "type": "function"
    },
    {
      "inputs": [
        {
          "internalType": "uint256",
          "name": "",
          "type": "uint256"
        },
        {
          "internalType": "uint256",
          "name": "",
          "type": "uint256"
        }
      ],
      "name": "teams",
      "outputs": [
        {
          "internalType": "uint256",
          "name": "id",
          "type": "uint256"
        },
        {
          "internalType": "string",
          "name": "name",
          "type": "string"
        },
        {
          "internalType": "address",
          "name": "teamLeader",
          "type": "address"
        },
        {
          "internalType": "uint256",
          "name": "memberCount",
          "type": "uint256"
        },
        {
          "internalType": "uint256",
          "name": "votes",
          "type": "uint256"
        },
        {
          "internalType": "uint256",
          "name": "rank",
          "type": "uint256"
        },
        {
          "internalType": "uint256",
          "name": "prizeAmount",
          "type": "uint256"
        },
        {
          "internalType": "bool",
          "name": "prizeDistributed",
          "type": "bool"
        },
        {
          "internalType": "bool",
          "name": "isRegistered",
          "type": "bool"
        }
      ],
      "stateMutability": "view",
      "type": "function"
    },
    {
      "inputs": [
        {
          "internalType": "uint256",
          "name": "tokenId",
          "type": "uint256"
        }
      ],
      "name": "tokenURI",
      "outputs": [
        {
          "internalType": "string",
          "name": "",
          "type": "string"
        }
      ],
      "stateMutability": "view",
      "type": "function"
    },
    {
      "inputs": [
        {
          "internalType": "address",
          "name": "from",
          "type": "address"
        },
        {
          "internalType": "address",
          "name": "to",
          "type": "address"
        },
        {
          "internalType": "uint256",
          "name": "tokenId",
          "type": "uint256"
        }
      ],
      "name": "transferFrom",
      "outputs": [],
      "stateMutability": "nonpayable",
      "type": "function"
    }
  ],
  "bytecode": "0x60406080815234620005d05762005486803803806200001e816200060b565b92833981019060208082840312620005d05781516001600160401b0392838211620005d0570192601f90808286011215620005d0578451848111620005d557601f199562000072828501881686016200060b565b92828452858383010111620005d057849060005b838110620005bb57505060009183010152620000a1620005eb565b92600e84526d121858dad85d1a1bdb905dd85c9960921b81850152620000c6620005eb565b600490818152634841434b60e01b838201528551878111620004bf57600054966001978881811c91168015620005b0575b868210146200059b5790818884931162000545575b508590888311600114620004e057600092620004d4575b5050600019600383901b1c191690871b176000555b805190878211620004bf5786548781811c91168015620004b4575b858210146200049f5790818784931162000449575b508490878311600114620003e557600092620003d9575b5050600019600383901b1c191690861b1785555b60008052600782528760002033600052825260ff886000205416156200039c575b7fa49807205ce4d355092ef5a8a18f56e8913cf4a201fbe287825b095693c2177580600052600783528860002033600052835260ff896000205416156200035d575b5082519586116200034857601254908582811c921680156200033d575b83831014620003285750838111620002dc575b50809285116001146200027157508394509083929160009462000265575b50501b916000199060031b1c1916176012555b51614e349081620006328239f35b01519250388062000244565b929484908116601260005284600020946000905b88838310620002c15750505010620002a7575b505050811b0160125562000257565b015160001960f88460031b161c1916905538808062000298565b85870151885590960195948501948793509081019062000285565b6012600052816000208480880160051c8201928489106200031e575b0160051c019085905b8281106200031157505062000226565b6000815501859062000301565b92508192620002f8565b602290634e487b7160e01b6000525260246000fd5b91607f169162000213565b604190634e487b7160e01b6000525260246000fd5b806000526007835288600020336000528352886000208660ff198254161790553390339060008051602062005466833981519152600080a438620001f6565b600080526007825287600020336000528252876000208560ff1982541617905533336000600080516020620054668339815191528180a4620001b4565b0151905038806200017f565b908a8994169184600052866000209260005b8882821062000432575050841162000418575b505050811b01855562000193565b015160001960f88460031b161c191690553880806200040a565b8385015186558c97909501949384019301620003f7565b90915087600052846000208780850160051c82019287861062000495575b918a91869594930160051c01915b8281106200048557505062000168565b600081558594508a910162000475565b9250819262000467565b602284634e487b7160e01b6000525260246000fd5b90607f169062000153565b604183634e487b7160e01b6000525260246000fd5b01519050388062000123565b908b8a94169160008052876000209260005b898282106200052e575050841162000514575b505050811b0160005562000138565b015160001960f88460031b161c1916905538808062000505565b8385015186558d97909501949384019301620004f2565b90915060008052856000208880850160051c82019288861062000591575b918b91869594930160051c01915b828110620005815750506200010c565b600081558594508b910162000571565b9250819262000563565b602285634e487b7160e01b6000525260246000fd5b90607f1690620000f7565b81810183015185820184015286920162000086565b600080fd5b634e487b7160e01b600052604160045260246000fd5b60408051919082016001600160401b03811183821017620005d557604052565b6040519190601f01601f191682016001600160401b03811183821017620005d55760405256fe608080604052600436101561001357600080fd5b60003560e01c90816301ffc9a71461383e57508063064f42a4146137de57806306fdde031461373b578063081812fc1461371d578063095ea7b3146135a35780631975c84c1461349457806323b872dd1461346b578063248a9ca31461343c5780632c0a3f89146131f25780632f2ff15d1461313f57806330312960146130355780633099752d14612fed57806336568abe14612f5b57806338673ee014612ee25780633efb6f6614612e7657806342842e0e14612e4e5780634385963214612e01578063443e91a414612c1457806344ade56d14612b4357806347d52bf014612a3c5780634d8b3abd146129fd57806355f804b3146128be578063563d65a5146127a85780636352211e1461277857806370a08231146126e157806375b238fc146126a65780637909cb591461266b578063797c0c59146125dc5780637f19288f1461204257806380b4ad1414611f8f5780638358d1c514611b4a57806391d1485414611afd57806395d89b4114611a32578063a217fddf14611a16578063a22cb46514611944578063ab7fb1f01461181e578063af7a58a11461176b578063b88d4fde1461170c578063c526815714610fad578063c87b56dd14610f76578063d547741f14610f35578063e4725f0214610e23578063e482d7f814610743578063e67ed67314610679578063e853ce6414610425578063e985e9c5146103cf578063ec38d5a0146102ec578063ef15914a1461029f5763f5b857581461023a57600080fd5b3461029a57606036600319011261029a57604435600435600052600d60205260406000206024356000526020526040600020805482101561029a57602091610281916139d7565b905460405160039290921b1c6001600160a01b03168152f35b600080fd5b3461029a57604036600319011261029a576102b86138f3565b600435600052600e60205260406000209060018060a01b0316600052602052602060ff604060002054166040519015158152f35b3461029a57602036600319011261029a57600435801515806103c3575b61031290614987565b600052600a60205261037360406000206004810154600b820154600c83015460ff600d850154600a8601549260098701549461038161035f600361035860028c01613bc1565b9a01613bc1565b6040519a8b9a610140808d528c019061392c565b908a820360208c015261392c565b96604089015260608801526080870152818116151560a0870152818160081c16151560c087015260101c16151560e08501526101008401526101208301520390f35b50600854811115610309565b3461029a57604036600319011261029a576103e86138dd565b6103f06138f3565b9060018060a01b03809116600052600560205260406000209116600052602052602060ff604060002054166040519015158152f35b3461029a5761043336613986565b8115158061066d575b61044590614987565b816000526020600a815260ff61046481600d6040600020015416614a2f565b83600052600a825261048281600d6040600020015460181c16614a8a565b83600052600a82526104bd6040600020600d8101549083808316928361065f575b83610651575b505081610642575b81610633575b50614ae8565b83600052600b825260406000208360005282526003604060002085600052600a845261051a6040600020936104fa81600785015460081c16614be8565b87600052600e865260406000203360005286526040600020541615614b48565b01906008825491015411156105ff57916105fa917f3783ef409f5decedcdbe5b9c311a61a15fd9e9c632f5b400a12f4cdac8d918319385600052600c82526040600020836000528252604060002033600052825260406000209060ff199160018382541617905586600052600d835260406000208460005283526105a2336040600020614bad565b6105ac8154614b9e565b90556000868152600e83526040808220338084529085528183208054909416600117909355878252600f84528082208383529093528290208390558151928352602083015290918291820190565b0390a2005b60405162461bcd60e51b815260048101839052600c60248201526b1519585b481a5cc8199d5b1b60a21b6044820152606490fd5b600c91500154421115866104b7565b600b81015442101591506104b1565b60081c1615915083886104a9565b9250808360181c16926104a3565b5060085482111561043c565b3461029a5761068736613986565b9080151580610737575b61069a90614987565b600052600b602052604060002090600052602052610711604060002060078101546106ca60ff8260081c16614be8565b60ff60018060a01b036002840154169160038401549360048101546005820154906106fc600160068501549401613bc1565b9660405198899860e08a5260e08a019061392c565b96602089015260408801526060870152608086015260a085015216151560c08301520390f35b50600854811115610691565b61014036600319011261029a576004356001600160401b03811161029a5761076f903690600401613aae565b6024356001600160401b03811161029a5761078e903690600401613aae565b9060ff606435166064350361029a5760ff608435166084350361029a5760ff60a4351660a4350361029a573360009081527fe3f5ba9a255c2cabf55dc77b8f43601039ff778f2d3cec0bc45e46bd9cc6ff44602052604090205460ff168015610deb575b15610d9a57805115610d5e57606460ff61081a60a4356108156084358535614973565b614973565b1603610d1a5760449182353403610cd65761012435610104351015610c885742610104351115610c445760c43515610bf457600360e43510610bb057600160085401918260085582600052600a602052604060002083815560018101336001600160601b0360a01b82541617905581516001600160401b038111610aed576108a56002830154613adb565b601f8111610b7b575b50806020601f8211600114610b0e57600091610b03575b508160011b916000199060031b1c19161760028201555b8251946001600160401b038611610aed5760209585946108ff6003850154613adb565b601f8111610aaf575b508790601f8311600114610a10576109dd7fa94cd0b7a6a30768493dd3c96d659f8684f84657295d41125416f89e1027f8769694846109f59795600795606495600092610a05575b50508160011b916000199060031b1c19161760038601555b8035600486015560c435600886015560e435600986015561010435600b86015561012435600c860155600d8501600163ff0000ff19825416179055826109b360ff823516833561482a565b046005860155826109ca60ff60843516833561482a565b04600686015560ff60a43516903561482a565b0491015560405191829160408352604083019061392c565b33878301520390a2604051908152f35b015190508d80610950565b9060038501600052886000209160005b601f1985168110610a9557507fa94cd0b7a6a30768493dd3c96d659f8684f84657295d41125416f89e1027f87696946001856007956064956109dd956109f59b99601f19811610610a7c575b505050811b016003860155610968565b015160001960f88460031b161c191690558d8080610a6c565b818301518455899850600190930192918a01918a01610a20565b610add906003860160005289600020601f850160051c8101918b8610610ae3575b601f0160051c019061495c565b88610908565b9091508190610ad0565b634e487b7160e01b600052604160045260246000fd5b9050830151876108c5565b91506002830160005260206000206000925b601f1983168410610b63576001935082601f19811610610b4a575b5050811b0160028201556108dc565b85015160001960f88460031b161c191690558780610b3b565b85810151825560209384019360019092019101610b20565b610baa90600284016000526020600020601f840160051c81019160208510610ae357601f0160051c019061495c565b866108ae565b60405162461bcd60e51b815260206004820152601b60248201527f4d75737420616c6c6f77206174206c656173742033207465616d73000000000081850152606490fd5b60405162461bcd60e51b8152602060048201526024808201527f4d6178207465616d2073697a65206d757374206265206772656174657220746881850152630616e20360e41b6064820152608490fd5b60405162461bcd60e51b815260206004820181905260248201527f53746172742064617465206d75737420626520696e207468652066757475726581850152606490fd5b60405162461bcd60e51b815260206004820152602160248201527f456e642064617465206d7573742062652061667465722073746172742064617481850152606560f81b6064820152608490fd5b60405162461bcd60e51b815260206004820181905260248201527f53656e742076616c7565206d757374206d61746368207072697a6520706f6f6c81850152606490fd5b606460405162461bcd60e51b815260206004820152602060248201527f5072697a652070657263656e7461676573206d75737420746f74616c203130306044820152fd5b60405162461bcd60e51b81526020600482015260146024820152734e616d652063616e6e6f7420626520656d70747960601b6044820152606490fd5b60405162461bcd60e51b815260206004820152602360248201527f43616c6c6572206973206e6f7420616e206f7267616e697a6572206f7220616460448201526236b4b760e91b6064820152608490fd5b503360009081527fa70365933f78520ef41d6645ba61e509916296603327302d41466c063e8e2608602052604090205460ff166107f2565b3461029a5760208060031936011261029a57610e3d6138dd565b610e45613c7c565b6001600160a01b03168015610efe577f4d2e7a1e3f5dd6e203f087b15756ccf0e4ccd947fe1b639a38540089a1e47f63918260005260078152610e8f600160406000200154613e97565b8260005260078152604060002082600052815260ff6040600020541615610eb257005b826000526007815260406000209082600052526040600020600160ff1982541617905533917f2f8788117e7eff1d82e926ec794901d17c78024a50270940304540a733656f0d600080a4005b60405162461bcd60e51b815260048101839052600f60248201526e496e76616c6964206164647265737360881b6044820152606490fd5b3461029a57604036600319011261029a57610f74600435610f546138f3565b90806000526007602052610f6f600160406000200154613e97565b613fa2565b005b3461029a57602036600319011261029a57610fa9610f956004356145b5565b60405191829160208352602083019061392c565b0390f35b3461029a57606036600319011261029a57610fc6613acc565b604435906001600160401b03821161029a573660238301121561029a57816004013591610ff283613c65565b926110006040519485613a3b565b8084526024602085019160051b8301019136831161029a57602401905b8282106116fc575050506004351515806116ee575b61103b90614987565b600435600052600a60205261105a60ff600d6040600020015416614a2f565b600435600052600a602052604060002090600d8201549061108060ff8360181c16614c2a565b61109060ff8360101c16156149e3565b600a83015491600383106116a957600c840154421190811561169a575b501561164657156115785760038351106115295760005b835181108061151f575b156111db57816110de8286614cea565b5110156111a457600435600052600b60205260406000206110ff8286614cea565b5160005260205261111d60ff60076040600020015460081c16614be8565b60005b818110611136575061113190614b9e565b6110c4565b6111408186614cea565b5161114b8387614cea565b511461115f5761115a90614b9e565b611120565b60405162461bcd60e51b815260206004820152601960248201527f4475706c6963617465207465616d20696e2072616e6b696e67000000000000006044820152606490fd5b60405162461bcd60e51b815260206004820152600f60248201526e125b9d985b1a59081d19585b481251608a1b6044820152606490fd5b50916111e683614cb8565b9260005b600381106115015750600360005b82811061148557505050506003905b825182101561130b5760035b61121e838551614cfe565b60038101908181116112e4576002019081116112e4578110156112fa57600435600052600b908160205260406000206112578287614cea565b516000526020526004604060002001549160043560005260205260406000209160018201908183116112e4576112ad936112918389614cea565b51600052602052600460406000200154116112b2575b50614b9e565b611213565b6112dd6112bf8388614cea565b51916112cb8189614cea565b516112d6858a614cea565b5287614cea565b52856112a7565b634e487b7160e01b600052601160045260246000fd5b509061130590614b9e565b90611207565b9190505b60005b815181108061147b575b156113af57600435600052600b602052604060002061133b8284614cea565b51600052602052604060002090600191828201928383116112e457611378936005830155821560001461137d575060066005860154910155614b9e565b611312565b820361139157600680860154910155614b9e565b6002821461139f5750614b9e565b60066007860154910155846112a7565b5090600435600052601160205260406000208251906001600160401b038211610aed57600160401b8211610aed57805482825580831061145d575b506020840190600052602060002060005b83811061144957600d8501805462ff0000191662010000179055604051600435907f020e11c6e7cca8ab95c4a970e5885738534e75bc3bc2336c9274ccd53d0abf0f90806105fa8a8261399c565b6001906020845194019381840155016113fb565b6114759082600052836020600020918201910161495c565b846113ea565b506003811061131c565b6000805b600381106114d8575b5015806114ce575b6114ad575b6114a890614b9e565b6111f8565b906114c681836114c06114a8948a614cea565b52614b9e565b91905061149f565b508551821061149a565b6114e28187614cea565b5183146114f7576114f290614b9e565b611489565b5050600187611492565b8061150f61151a9285614cea565b516114c08288614cea565b6111ea565b50600381106110ce565b60405162461bcd60e51b815260206004820152602160248201527f4d7573742070726f76696465206174206c6561737420746f702033207465616d6044820152607360f81b6064820152608490fd5b915061158382614cb8565b9160005b8181106116325750506000905b825182101561162a5760005b6115ab838551614cfe565b60001981019081116112e45781101561161957600435600052600b908160205260406000206115da8287614cea565b516000526020526004604060002001549160043560005260205260406000209160018201908183116112e457611614936112918389614cea565b6115a0565b509061162490614b9e565b90611594565b91905061130f565b80806114c06116419387614cea565b611587565b60405162461bcd60e51b815260206004820152602660248201527f4576656e74207374696c6c20696e2070726f6772657373206f7220766f74696e604482015265339037b832b760d11b6064820152608490fd5b60ff915060081c1615856110ad565b60405162461bcd60e51b815260206004820152601b60248201527f4e6f7420656e6f756768207465616d73207265676973746572656400000000006044820152606490fd5b506008546004351115611032565b813581526020918201910161101d565b3461029a57608036600319011261029a576117256138dd565b61172d6138f3565b606435916001600160401b03831161029a573660238401121561029a57611761610f74933690602481600401359101613a77565b9160443591614127565b3461029a5760208060031936011261029a5760043580151580611812575b61179290614987565b80600052600a82526117b160ff600d6040600020015460101c16614d0b565b60005260118152604060002090604051908181845491828152019360005281600020916000905b8282106117fb57610fa9856117ef81890382613a3b565b6040519182918261399c565b8354865294850194600193840193909101906117d8565b50600854811115611789565b3461029a57602036600319011261029a576004356000908152600a60205260409020805460018201546001600160a01b03169161185d60028201613bc1565b61186960038301613bc1565b91600481015492600582015460068301546007840154600885015490600986015492600a87015494600b88015496600c89015498600d0154996040519d8e809e8152602001528c6102206040819201528d016118c49161392c565b8c810360608e01526118d59161392c565b9960808c015260a08b015260c08a015260e089015261010088015261012087015261014086015261016085015261018084015260ff811615156101a08401528060081c60ff1615156101c08401528060101c60ff1615156101e084015260181c60ff1615156102008301520390f35b3461029a57604036600319011261029a5761195d6138dd565b611965613acc565b6001600160a01b03909116903382146119d15733600052600560205260406000208260005260205260406000209015159060ff1981541660ff83161790556040519081527f17307eab39ab6107e8899845ad3d59bd9653f200f220920489ca2b5937696c3160203392a3005b60405162461bcd60e51b815260206004820152601960248201527f4552433732313a20617070726f766520746f2063616c6c6572000000000000006044820152606490fd5b3461029a57600036600319011261029a57602060405160008152f35b3461029a57600036600319011261029a5760405160006001805490611a5682613adb565b80855291818116908115611ad65750600114611a7d575b610fa984610f9581860382613a3b565b600081815292507fb10e2d527612073b26eecdfd717e6a320cf44b4afac2b0732d9fcbe2b7fa0cf65b828410611abe575050508101602001610f9582611a6d565b80546020858701810191909152909301928101611aa6565b60ff191660208087019190915292151560051b85019092019250610f959150839050611a6d565b3461029a57604036600319011261029a57611b166138f3565b600435600052600760205260406000209060018060a01b0316600052602052602060ff604060002054166040519015158152f35b3461029a57604036600319011261029a576001600160401b0360043560243582811161029a57611b7e903690600401613aae565b9080151580611f83575b611b9190614987565b80600052602092600a845260ff92611bb284600d6040600020015416614a2f565b82600052600a8552611bd084600d6040600020015460181c16614a8a565b82600052600a8552611c0a6040600020600d81015490868083169283611f75575b83611f67575b505081611f58575b81611f495750614ae8565b805115611f045782600052600a8552611c3e604060002094600e875260406000203360005287526040600020541615614b48565b600a840160098154950154851015611ec757611c5985614b9e565b905582600052600b8552604060002084600052855260406000208481556001908181018351948511610aed578594611c918254613adb565b601f8111611e97575b5088601f8211600114611e095792611dbc9492826007937fd0ba7576069425c6e7163cf2884b01d9d04e8d2739ef48b27cedc97793b3c4cd9896600091611dfe575b50600019600383901b1c191690851b1790555b60028101336001600160601b0360a01b8254161790558260038201550161010061ff001982541617905584600052600c88526040600020876000528852604060002033600052885260406000209060ff1991818382541617905585600052600d89526040600020886000528952611d6a336040600020614bad565b85600052600e8952604060002033600052895260406000209182541617905583600052600f8752604060002033600052875285604060002055604051918291878352606089840152606083019061392c565b3360408301520390a2604080518381523360208201527f3783ef409f5decedcdbe5b9c311a61a15fd9e9c632f5b400a12f4cdac8d918319190a2604051908152f35b90508601518d611cdc565b601f19821690836000528a6000209160005b8c828210611e8057505095837fd0ba7576069425c6e7163cf2884b01d9d04e8d2739ef48b27cedc97793b3c4cd989693829693600796611dbc9a10611e67575b5050811b019055611cef565b88015160001960f88460031b161c191690558d80611e5b565b8984015185558b9a50938801939283019201611e1b565b611ec190836000528a600020601f840160051c8101918c8510610ae357601f0160051c019061495c565b89611c9a565b60405162461bcd60e51b815260048101879052601560248201527413585e1a5b5d5b481d19585b5cc81c995858da1959605a1b6044820152606490fd5b60405162461bcd60e51b815260048101869052601960248201527f5465616d206e616d652063616e6e6f7420626520656d707479000000000000006044820152606490fd5b600c91500154421115876104b7565b600b8101544210159150611bff565b60081c161591508689611bf7565b9250808360181c1692611bf1565b50600854811115611b88565b3461029a57611f9d36613986565b90600052600b60205260406000209060005260205260406000208054611fc560018301613bc1565b9160ff60018060a01b03600283015416916003810154906004810154600582015490600760068401549301549361200e604051998a998a526101208060208c01528a019061392c565b9660408901526060880152608087015260a086015260c0850152818116151560e085015260081c1615156101008301520390f35b3461029a5761205036613986565b90801515806125d0575b61206390614987565b80600052600a60205261208060ff600d6040600020015416614a2f565b80600052600a602052604060002090600b6020526040600020836000526020526120b860ff600d604060002094015460101c16614d0b565b6120d0600583015480151590816125c4575b50614d4f565b80600052600d6020526040600020836000526020526040600020926040518085602082975493848152019060005260206000209260005b8181106125a257505061211c92500385613a3b565b60005b8451811015610f74576009805460010190819055906001600160a01b036121468288614cea565b5116801561255e57600083815260026020526040902054839190612176906001600160a01b031615155b15614d92565b600082815260026020526040902054612199906001600160a01b03161515612170565b8060005260036020526040600020600181540190558160005260026020526040600020816001600160601b0360a01b82541617905560007fddf252ad1be2c89b69c2b068fc378daa952ba7f163c4a11628f55a4df523b3ef8180a46121fd846146c2565b61220a60058701546146c2565b90612214846146c2565b90604051928391600090601280549061222c82613adb565b916001811690811561253a57506001146124e8575b50509160208261225e856122a79895600298975194859201613909565b0190602f60f81b9182815261227d825180936020600185019101613909565b019060018201526122978251809360208785019101613909565b0103601d19810184520182613a3b565b6000838152600260205260409020546001600160a01b03161561248c5782600052600660205260406000209281516001600160401b038111610aed5786926122ef8654613adb565b601f811161245a575b50602090601f83116001146123c15795826080937f20be671e53b9d2e3b3ccf0b91568093805ea1efc308c55df0096021e954a882895936123b1996000926123b6575b50508160011b916000199060031b1c19161790555b7ff8e1a15aba9398e019f0b49df1a4fde98ee17ae345cb5f6b5e2c27f5033e8ce76020604051838152a16001600160a01b0361238c868c614cea565b51169060058a01549060405192898452602084015260408301526060820152a2614b9e565b61211f565b015190508d8061233b565b9192949580945060005260206000209160005b601f19851681106124425750936001846080946123b19998948c987f20be671e53b9d2e3b3ccf0b91568093805ea1efc308c55df0096021e954a882898601f19811610612429575b505050811b019055612350565b015160001960f88460031b161c191690558d808061241c565b828201518455600190930192602092830192016123d4565b61248690876000526020600020601f850160051c81019160208610610ae357601f0160051c019061495c565b8a6122f8565b60405162461bcd60e51b815260206004820152602e60248201527f45524337323155524953746f726167653a2055524920736574206f66206e6f6e60448201526d32bc34b9ba32b73a103a37b5b2b760911b6064820152608490fd5b919394509150600052600080516020614ddf8339815191526000905b828210612521575085939291840160209081019291506002612241565b8054602088840181019190915290910190600101612504565b60ff1916602080890191909152831515909302870183019450600291506122419050565b606460405162461bcd60e51b815260206004820152602060248201527f4552433732313a206d696e7420746f20746865207a65726f20616464726573736044820152fd5b84546001600160a01b0316835260019485019489945060209093019201612107565b600391501115856120ca565b5060085481111561205a565b3461029a57604036600319011261029a576004356125f86138f3565b908015158061265f575b61260b90614987565b80600052600e60205260406000209160018060a01b0316918260005260205261263b60ff60406000205416614c6c565b600052600f6020526040600020906000526020526020604060002054604051908152f35b50600854811115612602565b3461029a57600036600319011261029a5760206040517f4d2e7a1e3f5dd6e203f087b15756ccf0e4ccd947fe1b639a38540089a1e47f638152f35b3461029a57600036600319011261029a5760206040517fa49807205ce4d355092ef5a8a18f56e8913cf4a201fbe287825b095693c217758152f35b3461029a57602036600319011261029a576001600160a01b036127026138dd565b1680156127215760005260036020526020604060002054604051908152f35b60405162461bcd60e51b815260206004820152602960248201527f4552433732313a2061646472657373207a65726f206973206e6f7420612076616044820152683634b21037bbb732b960b91b6064820152608490fd5b3461029a57602036600319011261029a576020612796600435614064565b6040516001600160a01b039091168152f35b3461029a57604036600319011261029a576004356127c4613acc565b811515806128b2575b6127d690614987565b81600052600a6020526127f360ff600d6040600020015416614a2f565b81600052600a602052604060002090600d820191600b83549161281b60ff8460181c16614c2a565b01544210612875577f610c6aff0a27034b1a19b3a45acec1ce76bf7ce7fd98e7db70223b2ef58f02209260209261285860ff8460101c16156149e3565b15159161ff008360081b169061ff001916179055604051908152a2005b60405162461bcd60e51b8152602060048201526015602482015274115d995b9d081a185cc81b9bdd081cdd185c9d1959605a1b6044820152606490fd5b506008548211156127cd565b3461029a5760208060031936011261029a576001600160401b0360043581811161029a576128f0903690600401613aae565b916128f9613c7c565b8251918211610aed5761290d601254613adb565b601f81116129c1575b5080601f831160011461295257508192600092612947575b5050600019600383901b1c191660019190911b17601255005b01519050828061292e565b90601f198316936012600052600080516020614ddf833981519152926000905b8682106129a95750508360019510612990575b505050811b01601255005b015160001960f88460031b161c19169055828080612985565b80600185968294968601518155019501930190612972565b6129f7906012600052600080516020614ddf833981519152601f850160051c810191848610610ae357601f0160051c019061495c565b83612916565b3461029a57612a0b36613986565b9060005260116020526040600020805482101561029a57602091612a2e916139d7565b90546040519160031b1c8152f35b3461029a57612a4a36613986565b81151580612b37575b612a5c90614987565b81600052602091600b83526040600020826000528352612a8960ff60076040600020015460081c16614be8565b600052600d82526040600020906000528152604060002060405190818382549182815201908192600052846000209060005b86828210612b1a578686612ad182880383613a3b565b604051928392818401908285525180915260408401929160005b828110612afa57505050500390f35b83516001600160a01b031685528695509381019392810192600101612aeb565b83546001600160a01b031685529093019260019283019201612abb565b50600854821115612a53565b3461029a5760208060031936011261029a57612b5d6138dd565b612b65613c7c565b7f4d2e7a1e3f5dd6e203f087b15756ccf0e4ccd947fe1b639a38540089a1e47f63918260005260078152612ba0600160406000200154613e97565b60008381526007825260408082206001600160a01b0390941680835293835290205460ff16612bcb57005b82600052600781526040600020908260005252604060002060ff19815416905533917ff6391f5c32d9c69d2a47ea670b442974b53935d1edc7fd64eb21e047a839171b600080a4005b3461029a57612c2236613986565b81151580612df5575b612c3490614987565b816000526020600a8152612c5260ff600d6040600020015416614a2f565b82600052600a81526040600020600b82526040600020836000528252612c8660ff600d604060002093015460101c16614d0b565b612c9d60058201548015159081612de95750614d4f565b600781019081549060ff8216612da45760068101928354928315612d695760ff1916600117905560020180546001600160a01b03926000918291829182919087165af1612ce861443c565b5015612d2c5791606093917fd57881d0351ba0d08d555b2dd3dd3f2496bac662d1db289a15f198f8b32db2b9959354169054916040519384528301526040820152a2005b60405162461bcd60e51b8152600481018590526015602482015274141c9a5e99481d1c985b9cd9995c8819985a5b1959605a1b6044820152606490fd5b60405162461bcd60e51b8152600481018790526013602482015272139bc81c1c9a5e9948185b5bdd5b9d081cd95d606a1b6044820152606490fd5b60405162461bcd60e51b815260048101859052601960248201527f5072697a6520616c7265616479206469737472696275746564000000000000006044820152606490fd5b600391501115866120ca565b50600854821115612c2b565b3461029a57604036600319011261029a57612e1a6138f3565b600435600052601060205260406000209060018060a01b0316600052602052602060ff604060002054166040519015158152f35b3461029a57610f74612e5f36613951565b9060405192612e6d84613a05565b60008452614127565b3461029a57604036600319011261029a57600435612e926138f3565b9080151580612ed6575b612ea590614987565b600052601060205260406000209060018060a01b0316600052602052602060ff604060002054166040519015158152f35b50600854811115612e9c565b3461029a57602036600319011261029a5760043580151580612f4f575b612f0890614987565b600052600a602052600a60406000200154612f2281614cb8565b9060005b818110612f3b5760405180610fa9858261399c565b80806114c0612f4a9386614cea565b612f26565b50600854811115612eff565b3461029a57604036600319011261029a57612f746138f3565b336001600160a01b03821603612f9057610f7490600435613fa2565b60405162461bcd60e51b815260206004820152602f60248201527f416363657373436f6e74726f6c3a2063616e206f6e6c792072656e6f756e636560448201526e103937b632b9903337b91039b2b63360891b6064820152608490fd5b3461029a57604036600319011261029a576130066138f3565b600435600052600f60205260406000209060018060a01b03166000526020526020604060002054604051908152f35b3461029a57602036600319011261029a5760043580151580613133575b61305b90614987565b600052600a6020526040600020600d81019081549160ff8316156130f557600080809381938661309160ff8260101c16156149e3565b60ff191690556001810154600490910154906001600160a01b03165af16130b661443c565b50156130be57005b60405162461bcd60e51b815260206004820152600f60248201526e151c985b9cd9995c8819985a5b1959608a1b6044820152606490fd5b60405162461bcd60e51b81526020600482015260166024820152754576656e7420616c726561647920696e61637469766560501b6044820152606490fd5b50600854811115613052565b3461029a57604036600319011261029a5760043561315b6138f3565b816000526007602052613175600160406000200154613e97565b81600052600760205260406000209060018060a01b0316908160005260205260ff60406000205416156131a457005b8160005260076020526040600020816000526020526040600020600160ff1982541617905533917f2f8788117e7eff1d82e926ec794901d17c78024a50270940304540a733656f0d600080a4005b3461029a5761320036613986565b81151580613430575b61321290614987565b81600052602090600a825260ff61323281600d6040600020015416614a2f565b83600052600a835261325081600d6040600020015460181c16614a8a565b83600052600a8352600d60406000200154818160081c16156133f6578161327b9160101c16156149e3565b83600052600e8352604060002033600052835261329e8160406000205416614c6c565b8360005260108352604060002033600052835280604060002054166133c1576132e69084600052600b8452604060002083600052845260076040600020015460081c16614be8565b82600052600f82526040600020336000528252604060002054811461337c577f2acce567deca3aabf56327adbb4524bd5318936eaefa69e3a5208ffda0cfec099160409184600052600b8252826000208160005282526004836000200161334d8154614b9e565b905584600052601082528260002033600052825282600020600160ff19825416179055825191338352820152a2005b60405162461bcd60e51b815260048101839052601d60248201527f43616e6e6f7420766f746520666f7220796f7572206f776e207465616d0000006044820152606490fd5b60405162461bcd60e51b815260048101849052600d60248201526c105b1c9958591e481d9bdd1959609a1b6044820152606490fd5b60405162461bcd60e51b81526004810185905260126024820152712b37ba34b7339034b9903737ba1037b832b760711b6044820152606490fd5b50600854821115613209565b3461029a57602036600319011261029a5760043560005260076020526020600160406000200154604051908152f35b3461029a57610f7461347c36613951565b9161348f61348a84336141b2565b6140c5565b61427a565b3461029a57602036600319011261029a5760043580151580613597575b6134ba90614987565b80600052600a602052600d604060002001805460ff8160181c166135525760ff8116156135175763ff000000191663010000001790557f9f192d554aea3c677123a2bf99d1df66d520e3b66ca25acdc4d038f1fb7afb3d600080a2005b60405162461bcd60e51b81526020600482015260136024820152724576656e74206973206e6f742061637469766560681b6044820152606490fd5b60405162461bcd60e51b815260206004820152601760248201527f4576656e7420616c7265616479207075626c69736865640000000000000000006044820152606490fd5b506008548111156134b1565b3461029a57604036600319011261029a576135bc6138dd565b602435906001600160a01b0380806135d385614064565b169216918083146136ce578033149081156136a9575b501561363e57600083815260046020526040902080546001600160a01b0319168317905561361683614064565b167f8c5be1e5ebec7d5bd14f71427d1e84f3dd0314c0f7b2291e5b200ac8c7c3b925600080a4005b60405162461bcd60e51b815260206004820152603d60248201527f4552433732313a20617070726f76652063616c6c6572206973206e6f7420746f60448201527f6b656e206f776e6572206f7220617070726f76656420666f7220616c6c0000006064820152608490fd5b9050600052600560205260406000203360005260205260ff60406000205416846135e9565b60405162461bcd60e51b815260206004820152602160248201527f4552433732313a20617070726f76616c20746f2063757272656e74206f776e656044820152603960f91b6064820152608490fd5b3461029a57602036600319011261029a576020612796600435614087565b3461029a57600036600319011261029a576040516000805461375c81613adb565b80845290600190818116908115611ad6575060011461378557610fa984610f9581860382613a3b565b600080805292507f290decd9548b62a8d60345a988386fc84ba6bc95484008f6362f93160ef3e5635b8284106137c6575050508101602001610f9582611a6d565b805460208587018101919091529093019281016137ae565b3461029a57606036600319011261029a576044356001600160a01b0381169081900361029a57600435600052600c6020526040600020602435600052602052604060002090600052602052602060ff604060002054166040519015158152f35b3461029a57602036600319011261029a576004359063ffffffff60e01b821680920361029a57602091637965db0b60e01b8114908115613880575b5015158152f35b632483248360e11b81149150811561389a575b5083613879565b6380ac58cd60e01b8114915081156138cc575b81156138bb575b5083613893565b6301ffc9a760e01b149050836138b4565b635b5e139f60e01b811491506138ad565b600435906001600160a01b038216820361029a57565b602435906001600160a01b038216820361029a57565b60005b83811061391c5750506000910152565b818101518382015260200161390c565b9060209161394581518092818552858086019101613909565b601f01601f1916010190565b606090600319011261029a576001600160a01b0390600435828116810361029a5791602435908116810361029a579060443590565b604090600319011261029a576004359060243590565b6020908160408183019282815285518094520193019160005b8281106139c3575050505090565b8351855293810193928101926001016139b5565b80548210156139ef5760005260206000200190600090565b634e487b7160e01b600052603260045260246000fd5b602081019081106001600160401b03821117610aed57604052565b608081019081106001600160401b03821117610aed57604052565b90601f801991011681019081106001600160401b03821117610aed57604052565b6001600160401b038111610aed57601f01601f191660200190565b929192613a8382613a5c565b91613a916040519384613a3b565b82948184528183011161029a578281602093846000960137010152565b9080601f8301121561029a57816020613ac993359101613a77565b90565b60243590811515820361029a57565b90600182811c92168015613b0b575b6020831014613af557565b634e487b7160e01b600052602260045260246000fd5b91607f1691613aea565b6040519060008260125491613b2983613adb565b80835292600190818116908115613b9f5750600114613b52575b50613b5092500383613a3b565b565b601260009081529150600080516020614ddf8339815191525b848310613b845750613b50935050810160200138613b43565b81935090816020925483858a01015201910190918592613b6b565b905060209250613b5094915060ff191682840152151560051b82010138613b43565b9060405191826000825492613bd584613adb565b908184526001948581169081600014613c425750600114613bff575b5050613b5092500383613a3b565b9093915060005260209081600020936000915b818310613c2a575050613b5093508201013880613bf1565b85548884018501529485019487945091830191613c12565b915050613b5094506020925060ff191682840152151560051b8201013880613bf1565b6001600160401b038111610aed5760051b60200190565b3360009081527fa70365933f78520ef41d6645ba61e509916296603327302d41466c063e8e2608602090815260408083205490927fa49807205ce4d355092ef5a8a18f56e8913cf4a201fbe287825b095693c217759160ff1615613ce05750505050565b613ce93361484e565b91845190613cf682613a20565b60428252848201926060368537825115613e835760308453825190600191821015613e835790607860218501536041915b818311613e1557505050613dd3576048613dcf938693613db393613da4985198899376020b1b1b2b9b9a1b7b73a3937b61d1030b1b1b7bab73a1604d1b8a860152613d7b815180928c603789019101613909565b8401917001034b99036b4b9b9b4b733903937b6329607d1b603784015251809386840190613909565b01036028810187520185613a3b565b5192839262461bcd60e51b84526004840152602483019061392c565b0390fd5b60648486519062461bcd60e51b825280600483015260248201527f537472696e67733a20686578206c656e67746820696e73756666696369656e746044820152fd5b909192600f81166010811015613e6f576f181899199a1a9b1b9c1cb0b131b232b360811b901a613e45858761483d565b5360041c928015613e5b57600019019190613d27565b634e487b7160e01b82526011600452602482fd5b634e487b7160e01b83526032600452602483fd5b634e487b7160e01b81526032600452602490fd5b60009080825260209060078252604092838120338252835260ff848220541615613ec15750505050565b613eca3361484e565b91845190613ed782613a20565b60428252848201926060368537825115613e835760308453825190600191821015613e835790607860218501536041915b818311613f5c57505050613dd3576048613dcf938693613db393613da4985198899376020b1b1b2b9b9a1b7b73a3937b61d1030b1b1b7bab73a1604d1b8a860152613d7b815180928c603789019101613909565b909192600f81166010811015613e6f576f181899199a1a9b1b9c1cb0b131b232b360811b901a613f8c858761483d565b5360041c928015613e5b57600019019190613f08565b906000918083526007602052604083209160018060a01b03169182845260205260ff604084205416613fd357505050565b8083526007602052604083208284526020526040832060ff1981541690557ff6391f5c32d9c69d2a47ea670b442974b53935d1edc7fd64eb21e047a839171b339380a4565b1561401f57565b60405162461bcd60e51b815260206004820152601860248201527f4552433732313a20696e76616c696420746f6b656e20494400000000000000006044820152606490fd5b6000908152600260205260409020546001600160a01b0316613ac9811515614018565b6000818152600260205260409020546140aa906001600160a01b03161515614018565b6000908152600460205260409020546001600160a01b031690565b156140cc57565b60405162461bcd60e51b815260206004820152602d60248201527f4552433732313a2063616c6c6572206973206e6f7420746f6b656e206f776e6560448201526c1c881bdc88185c1c1c9bdd9959609a1b6064820152608490fd5b9061414b93929161413b61348a84336141b2565b61414683838361427a565b61446c565b1561415257565b60405162461bcd60e51b815260206004820152603260248201527f4552433732313a207472616e7366657220746f206e6f6e20455243373231526560448201527131b2b4bb32b91034b6b83632b6b2b73a32b960711b6064820152608490fd5b906001600160a01b0380806141c684614064565b169316918383149384156141f9575b5083156141e3575b50505090565b6141ef91929350614087565b16143880806141dd565b909350600052600560205260406000208260005260205260ff6040600020541692386141d5565b1561422757565b60405162461bcd60e51b815260206004820152602560248201527f4552433732313a207472616e736665722066726f6d20696e636f72726563742060448201526437bbb732b960d91b6064820152608490fd5b906142a29161428884614064565b6001600160a01b0393918416928492909183168414614220565b169182156143eb57811580156143b3575b1561434857816142cd916142c686614064565b1614614220565b7fddf252ad1be2c89b69c2b068fc378daa952ba7f163c4a11628f55a4df523b3ef60008481526004602052604081206001600160601b0360a01b9081815416905583825260036020526040822060001981540190558482526040822060018154019055858252600260205284604083209182541617905580a4565b60405162461bcd60e51b815260206004820152603960248201527f4861636b6174686f6e506c6174666f726d3a204e4654732063616e206f6e6c7960448201527f206265207472616e736665727265642062792061646d696e73000000000000006064820152608490fd5b503360009081527fa70365933f78520ef41d6645ba61e509916296603327302d41466c063e8e2608602052604090205460ff166142b3565b60405162461bcd60e51b8152602060048201526024808201527f4552433732313a207472616e7366657220746f20746865207a65726f206164646044820152637265737360e01b6064820152608490fd5b3d15614467573d9061444d82613a5c565b9161445b6040519384613a3b565b82523d6000602084013e565b606090565b919290803b156145ac57604051630a85bd0160e11b8082523360048301526001600160a01b039485166024830152604482019590955260806064820152916020918391829081906144c190608483019061392c565b03916000968791165af19082908261455d575b505061454f576144e261443c565b8051908161454a5760405162461bcd60e51b815260206004820152603260248201527f4552433732313a207472616e7366657220746f206e6f6e20455243373231526560448201527131b2b4bb32b91034b6b83632b6b2b73a32b960711b6064820152608490fd5b602001fd5b6001600160e01b0319161490565b909192506020813d82116145a4575b8161457960209383613a3b565b810103126145a05751906001600160e01b03198216820361459d57509038806144d4565b80fd5b5080fd5b3d915061456c565b50505050600190565b6000818152600260205260409020546145d8906001600160a01b03161515614018565b806000526020600681526145ef6040600020613bc1565b6145f7613b15565b80519182156146ba57805161469e5750505060008281526002602052604090205461462c906001600160a01b03161515614018565b614634613b15565b80519092906000901561468857509061464f613ac9926146c2565b9260405193816146688693518092868087019101613909565b820161467c82518093868085019101613909565b01038084520182613a3b565b925050506040519061469982613a05565b815290565b82613ac994939550614668604051968794868087019101613909565b935050505090565b806000917a184f03e93ff9f4daa797ed6e38ed64bf6a1f0100000000000000008082101561481c575b506d04ee2d6d415b85acef81000000008083101561480d575b50662386f26fc10000808310156147fe575b506305f5e100808310156147ef575b50612710808310156147e0575b5060648210156147d0575b600a809210156147c6575b6001908160218186019561475b87613a5c565b966147696040519889613a3b565b808852614778601f1991613a5c565b01366020890137860101905b614790575b5050505090565b600019019083906f181899199a1a9b1b9c1cb0b131b232b360811b8282061a8353049182156147c157919082614784565b614789565b9160010191614748565b919060646002910491019161473d565b60049193920491019138614732565b60089193920491019138614725565b60109193920491019138614716565b60209193920491019138614704565b6040935081049150386146eb565b818102929181159184041417156112e457565b9081518110156139ef570160200190565b60405190606082018281106001600160401b03821117610aed57604052602a82526020820160403682378251156139ef576030905381516001908110156139ef57607860218401536029905b8082116148ee5750506148aa5790565b606460405162461bcd60e51b815260206004820152602060248201527f537472696e67733a20686578206c656e67746820696e73756666696369656e746044820152fd5b9091600f81166010811015614947576f181899199a1a9b1b9c1cb0b131b232b360811b901a61491d848661483d565b5360041c91801561493257600019019061489a565b60246000634e487b7160e01b81526011600452fd5b60246000634e487b7160e01b81526032600452fd5b818110614967575050565b6000815560010161495c565b9060ff8091169116019060ff82116112e457565b1561498e57565b60405162461bcd60e51b815260206004820152602760248201527f4861636b6174686f6e506c6174666f726d3a206576656e7420646f6573206e6f6044820152661d08195e1a5cdd60ca1b6064820152608490fd5b156149ea57565b60405162461bcd60e51b815260206004820152601960248201527f526573756c747320616c72656164792066696e616c697a6564000000000000006044820152606490fd5b15614a3657565b60405162461bcd60e51b815260206004820152602660248201527f4861636b6174686f6e506c6174666f726d3a206576656e74206973206e6f742060448201526561637469766560d01b6064820152608490fd5b15614a9157565b60405162461bcd60e51b815260206004820152602960248201527f4861636b6174686f6e506c6174666f726d3a206576656e74206973206e6f74206044820152681c1d589b1a5cda195960ba1b6064820152608490fd5b15614aef57565b60405162461bcd60e51b815260206004820152602b60248201527f4861636b6174686f6e506c6174666f726d3a20726567697374726174696f6e2060448201526a34b9903737ba1037b832b760a91b6064820152608490fd5b15614b4f57565b60405162461bcd60e51b815260206004820152602160248201527f416c7265616479207265676973746572656420666f722074686973206576656e6044820152601d60fa1b6064820152608490fd5b60001981146112e45760010190565b8054600160401b811015610aed57614bca916001820181556139d7565b819291549060031b9160018060a01b03809116831b921b1916179055565b15614bef57565b60405162461bcd60e51b81526020600482015260136024820152721519585b48191bd95cc81b9bdd08195e1a5cdd606a1b6044820152606490fd5b15614c3157565b60405162461bcd60e51b8152602060048201526013602482015272115d995b9d081b9bdd081c1d589b1a5cda1959606a1b6044820152606490fd5b15614c7357565b60405162461bcd60e51b815260206004820152601d60248201527f4e6f74207265676973746572656420666f722074686973206576656e740000006044820152606490fd5b90614cc282613c65565b614ccf6040519182613a3b565b8281528092614ce0601f1991613c65565b0190602036910137565b80518210156139ef5760209160051b010190565b919082039182116112e457565b15614d1257565b60405162461bcd60e51b815260206004820152601560248201527414995cdd5b1d1cc81b9bdd08199a5b985b1a5e9959605a1b6044820152606490fd5b15614d5657565b60405162461bcd60e51b81526020600482015260146024820152732a32b0b69034b9903737ba1030903bb4b73732b960611b6044820152606490fd5b15614d9957565b60405162461bcd60e51b815260206004820152601c60248201527f4552433732313a20746f6b656e20616c7265616479206d696e746564000000006044820152606490fdfebb8a6a4669ba250d26cd7a459eca9d215f8307e33aebe50379bc5a3617ec3444a264697066735822122058e5a8b1ffb1cf20479573bbd46907acec7ac31b7396cf23076b0e1d4f93764664736f6c634300081400332f8788117e7eff1d82e926ec794901d17c78024a50270940304540a733656f0d",
  "linkReferences": {},
  "deployedLinkReferences": {}
}