{
  "_format": "hh-sol-artifact-1",
  "contractName": "HackathonPlatform",
  "sourceName": "contracts/HackathonPlatform.sol",
  "abi": [
    {
      "inputs": [
        {
          "internalType": "string",
          "name": "baseURI",
          "type": "string"
        }
      ],
      "stateMutability": "nonpayable",
      "type": "constructor"
    },
    {
      "anonymous": false,
      "inputs": [
        {
          "indexed": true,
          "internalType": "address",
          "name": "owner",
          "type": "address"
        },
        {
          "indexed": true,
          "internalType": "address",
          "name": "approved",
          "type": "address"
        },
        {
          "indexed": true,
          "internalType": "uint256",
          "name": "tokenId",
          "type": "uint256"
        }
      ],
      "name": "Approval",
      "type": "event"
    },
    {
      "anonymous": false,
      "inputs": [
        {
          "indexed": true,
          "internalType": "address",
          "name": "owner",
          "type": "address"
        },
        {
          "indexed": true,
          "internalType": "address",
          "name": "operator",
          "type": "address"
        },
        {
          "indexed": false,
          "internalType": "bool",
          "name": "approved",
          "type": "bool"
        }
      ],
      "name": "ApprovalForAll",
      "type": "event"
    },
    {
      "anonymous": false,
      "inputs": [
        {
          "indexed": false,
          "internalType": "uint256",
          "name": "_fromTokenId",
          "type": "uint256"
        },
        {
          "indexed": false,
          "internalType": "uint256",
          "name": "_toTokenId",
          "type": "uint256"
        }
      ],
      "name": "BatchMetadataUpdate",
      "type": "event"
    },
    {
      "anonymous": false,
      "inputs": [
        {
          "indexed": true,
          "internalType": "uint256",
          "name": "eventId",
          "type": "uint256"
        },
        {
          "indexed": false,
          "internalType": "string",
          "name": "name",
          "type": "string"
        },
        {
          "indexed": false,
          "internalType": "address",
          "name": "organizer",
          "type": "address"
        }
      ],
      "name": "HackathonCreated",
      "type": "event"
    },
    {
      "anonymous": false,
      "inputs": [
        {
          "indexed": true,
          "internalType": "uint256",
          "name": "eventId",
          "type": "uint256"
        }
      ],
      "name": "HackathonPublished",
      "type": "event"
    },
    {
      "anonymous": false,
      "inputs": [
        {
          "indexed": true,
          "internalType": "uint256",
          "name": "eventId",
          "type": "uint256"
        },
        {
          "indexed": false,
          "internalType": "uint256",
          "name": "teamId",
          "type": "uint256"
        },
        {
          "indexed": false,
          "internalType": "address",
          "name": "member",
          "type": "address"
        }
      ],
      "name": "MemberJoined",
      "type": "event"
    },
    {
      "anonymous": false,
      "inputs": [
        {
          "indexed": false,
          "internalType": "uint256",
          "name": "_tokenId",
          "type": "uint256"
        }
      ],
      "name": "MetadataUpdate",
      "type": "event"
    },
    {
      "anonymous": false,
      "inputs": [
        {
          "indexed": true,
          "internalType": "uint256",
          "name": "eventId",
          "type": "uint256"
        },
        {
          "indexed": false,
          "internalType": "uint256",
          "name": "teamId",
          "type": "uint256"
        },
        {
          "indexed": false,
          "internalType": "address",
          "name": "recipient",
          "type": "address"
        },
        {
          "indexed": false,
          "internalType": "uint256",
          "name": "tokenId",
          "type": "uint256"
        },
        {
          "indexed": false,
          "internalType": "uint256",
          "name": "rank",
          "type": "uint256"
        }
      ],
      "name": "NFTAwarded",
      "type": "event"
    },
    {
      "anonymous": false,
      "inputs": [
        {
          "indexed": true,
          "internalType": "uint256",
          "name": "eventId",
          "type": "uint256"
        },
        {
          "indexed": false,
          "internalType": "uint256",
          "name": "teamId",
          "type": "uint256"
        },
        {
          "indexed": false,
          "internalType": "address",
          "name": "recipient",
          "type": "address"
        },
        {
          "indexed": false,
          "internalType": "uint256",
          "name": "amount",
          "type": "uint256"
        }
      ],
      "name": "PrizeDistributed",
      "type": "event"
    },
    {
      "anonymous": false,
      "inputs": [
        {
          "indexed": true,
          "internalType": "uint256",
          "name": "eventId",
          "type": "uint256"
        },
        {
          "indexed": false,
          "internalType": "uint256[]",
          "name": "rankedTeamIds",
          "type": "uint256[]"
        }
      ],
      "name": "ResultsFinalized",
      "type": "event"
    },
    {
      "anonymous": false,
      "inputs": [
        {
          "indexed": true,
          "internalType": "bytes32",
          "name": "role",
          "type": "bytes32"
        },
        {
          "indexed": true,
          "internalType": "bytes32",
          "name": "previousAdminRole",
          "type": "bytes32"
        },
        {
          "indexed": true,
          "internalType": "bytes32",
          "name": "newAdminRole",
          "type": "bytes32"
        }
      ],
      "name": "RoleAdminChanged",
      "type": "event"
    },
    {
      "anonymous": false,
      "inputs": [
        {
          "indexed": true,
          "internalType": "bytes32",
          "name": "role",
          "type": "bytes32"
        },
        {
          "indexed": true,
          "internalType": "address",
          "name": "account",
          "type": "address"
        },
        {
          "indexed": true,
          "internalType": "address",
          "name": "sender",
          "type": "address"
        }
      ],
      "name": "RoleGranted",
      "type": "event"
    },
    {
      "anonymous": false,
      "inputs": [
        {
          "indexed": true,
          "internalType": "bytes32",
          "name": "role",
          "type": "bytes32"
        },
        {
          "indexed": true,
          "internalType": "address",
          "name": "account",
          "type": "address"
        },
        {
          "indexed": true,
          "internalType": "address",
          "name": "sender",
          "type": "address"
        }
      ],
      "name": "RoleRevoked",
      "type": "event"
    },
    {
      "anonymous": false,
      "inputs": [
        {
          "indexed": true,
          "internalType": "uint256",
          "name": "eventId",
          "type": "uint256"
        },
        {
          "indexed": false,
          "internalType": "uint256",
          "name": "teamId",
          "type": "uint256"
        },
        {
          "indexed": false,
          "internalType": "string",
          "name": "name",
          "type": "string"
        },
        {
          "indexed": false,
          "internalType": "address",
          "name": "teamLeader",
          "type": "address"
        }
      ],
      "name": "TeamRegistered",
      "type": "event"
    },
    {
      "anonymous": false,
      "inputs": [
        {
          "indexed": true,
          "internalType": "address",
          "name": "from",
          "type": "address"
        },
        {
          "indexed": true,
          "internalType": "address",
          "name": "to",
          "type": "address"
        },
        {
          "indexed": true,
          "internalType": "uint256",
          "name": "tokenId",
          "type": "uint256"
        }
      ],
      "name": "Transfer",
      "type": "event"
    },
    {
      "anonymous": false,
      "inputs": [
        {
          "indexed": true,
          "internalType": "uint256",
          "name": "eventId",
          "type": "uint256"
        },
        {
          "indexed": false,
          "internalType": "address",
          "name": "voter",
          "type": "address"
        },
        {
          "indexed": false,
          "internalType": "uint256",
          "name": "teamId",
          "type": "uint256"
        }
      ],
      "name": "VoteCast",
      "type": "event"
    },
    {
      "anonymous": false,
      "inputs": [
        {
          "indexed": true,
          "internalType": "uint256",
          "name": "eventId",
          "type": "uint256"
        },
        {
          "indexed": false,
          "internalType": "bool",
          "name": "isOpen",
          "type": "bool"
        }
      ],
      "name": "VotingStateChanged",
      "type": "event"
    },
    {
      "inputs": [],
      "name": "ADMIN_ROLE",
      "outputs": [
        {
          "internalType": "bytes32",
          "name": "",
          "type": "bytes32"
        }
      ],
      "stateMutability": "view",
      "type": "function"
    },
    {
      "inputs": [],
      "name": "DEFAULT_ADMIN_ROLE",
      "outputs": [
        {
          "internalType": "bytes32",
          "name": "",
          "type": "bytes32"
        }
      ],
      "stateMutability": "view",
      "type": "function"
    },
    {
      "inputs": [],
      "name": "ORGANIZER_ROLE",
      "outputs": [
        {
          "internalType": "bytes32",
          "name": "",
          "type": "bytes32"
        }
      ],
      "stateMutability": "view",
      "type": "function"
    },
    {
      "inputs": [
        {
          "internalType": "address",
          "name": "account",
          "type": "address"
        }
      ],
      "name": "addOrganizer",
      "outputs": [],
      "stateMutability": "nonpayable",
      "type": "function"
    },
    {
      "inputs": [
        {
          "internalType": "address",
          "name": "to",
          "type": "address"
        },
        {
          "internalType": "uint256",
          "name": "tokenId",
          "type": "uint256"
        }
      ],
      "name": "approve",
      "outputs": [],
      "stateMutability": "nonpayable",
      "type": "function"
    },
    {
      "inputs": [
        {
          "internalType": "uint256",
          "name": "eventId",
          "type": "uint256"
        },
        {
          "internalType": "uint256",
          "name": "teamId",
          "type": "uint256"
        }
      ],
      "name": "awardNFTs",
      "outputs": [],
      "stateMutability": "nonpayable",
      "type": "function"
    },
    {
      "inputs": [
        {
          "internalType": "address",
          "name": "owner",
          "type": "address"
        }
      ],
      "name": "balanceOf",
      "outputs": [
        {
          "internalType": "uint256",
          "name": "",
          "type": "uint256"
        }
      ],
      "stateMutability": "view",
      "type": "function"
    },
    {
      "inputs": [
        {
          "internalType": "uint256",
          "name": "eventId",
          "type": "uint256"
        }
      ],
      "name": "cancelHackathon",
      "outputs": [],
      "stateMutability": "nonpayable",
      "type": "function"
    },
    {
      "inputs": [
        {
          "internalType": "uint256",
          "name": "eventId",
          "type": "uint256"
        },
        {
          "internalType": "uint256",
          "name": "teamId",
          "type": "uint256"
        }
      ],
      "name": "castVote",
      "outputs": [],
      "stateMutability": "nonpayable",
      "type": "function"
    },
    {
      "inputs": [
        {
          "internalType": "string",
          "name": "name",
          "type": "string"
        },
        {
          "internalType": "string",
          "name": "description",
          "type": "string"
        },
        {
          "internalType": "uint256",
          "name": "prizePool",
          "type": "uint256"
        },
        {
          "internalType": "uint8",
          "name": "firstPrizePercent",
          "type": "uint8"
        },
        {
          "internalType": "uint8",
          "name": "secondPrizePercent",
          "type": "uint8"
        },
        {
          "internalType": "uint8",
          "name": "thirdPrizePercent",
          "type": "uint8"
        },
        {
          "internalType": "uint256",
          "name": "maxTeamSize",
          "type": "uint256"
        },
        {
          "internalType": "uint256",
          "name": "maxTeams",
          "type": "uint256"
        },
        {
          "internalType": "uint256",
          "name": "startDate",
          "type": "uint256"
        },
        {
          "internalType": "uint256",
          "name": "endDate",
          "type": "uint256"
        }
      ],
      "name": "createHackathon",
      "outputs": [
        {
          "internalType": "uint256",
          "name": "",
          "type": "uint256"
        }
      ],
      "stateMutability": "payable",
      "type": "function"
    },
    {
      "inputs": [
        {
          "internalType": "uint256",
          "name": "eventId",
          "type": "uint256"
        },
        {
          "internalType": "uint256",
          "name": "teamId",
          "type": "uint256"
        }
      ],
      "name": "distributePrize",
      "outputs": [],
      "stateMutability": "nonpayable",
      "type": "function"
    },
    {
      "inputs": [
        {
          "internalType": "uint256",
          "name": "",
          "type": "uint256"
        },
        {
          "internalType": "uint256",
          "name": "",
          "type": "uint256"
        }
      ],
      "name": "finalRankings",
      "outputs": [
        {
          "internalType": "uint256",
          "name": "",
          "type": "uint256"
        }
      ],
      "stateMutability": "view",
      "type": "function"
    },
    {
      "inputs": [
        {
          "internalType": "uint256",
          "name": "eventId",
          "type": "uint256"
        },
        {
          "internalType": "bool",
          "name": "useManualRanking",
          "type": "bool"
        },
        {
          "internalType": "uint256[]",
          "name": "manualTopTeamIds",
          "type": "uint256[]"
        }
      ],
      "name": "finalizeResults",
      "outputs": [],
      "stateMutability": "nonpayable",
      "type": "function"
    },
    {
      "inputs": [
        {
          "internalType": "uint256",
          "name": "tokenId",
          "type": "uint256"
        }
      ],
      "name": "getApproved",
      "outputs": [
        {
          "internalType": "address",
          "name": "",
          "type": "address"
        }
      ],
      "stateMutability": "view",
      "type": "function"
    },
    {
      "inputs": [
        {
          "internalType": "uint256",
          "name": "eventId",
          "type": "uint256"
        }
      ],
      "name": "getEventDetails",
      "outputs": [
        {
          "internalType": "string",
          "name": "name",
          "type": "string"
        },
        {
          "internalType": "string",
          "name": "description",
          "type": "string"
        },
        {
          "internalType": "uint256",
          "name": "prizePool",
          "type": "uint256"
        },
        {
          "internalType": "uint256",
          "name": "startDate",
          "type": "uint256"
        },
        {
          "internalType": "uint256",
          "name": "endDate",
          "type": "uint256"
        },
        {
          "internalType": "bool",
          "name": "isActive",
          "type": "bool"
        },
        {
          "internalType": "bool",
          "name": "votingOpen",
          "type": "bool"
        },
        {
          "internalType": "bool",
          "name": "resultsFinalized",
          "type": "bool"
        },
        {
          "internalType": "uint256",
          "name": "teamCount",
          "type": "uint256"
        },
        {
          "internalType": "uint256",
          "name": "maxTeams",
          "type": "uint256"
        }
      ],
      "stateMutability": "view",
      "type": "function"
    },
    {
      "inputs": [
        {
          "internalType": "uint256",
          "name": "eventId",
          "type": "uint256"
        }
      ],
      "name": "getEventRankings",
      "outputs": [
        {
          "internalType": "uint256[]",
          "name": "",
          "type": "uint256[]"
        }
      ],
      "stateMutability": "view",
      "type": "function"
    },
    {
      "inputs": [
        {
          "internalType": "uint256",
          "name": "eventId",
          "type": "uint256"
        }
      ],
      "name": "getEventTeams",
      "outputs": [
        {
          "internalType": "uint256[]",
          "name": "",
          "type": "uint256[]"
        }
      ],
      "stateMutability": "view",
      "type": "function"
    },
    {
      "inputs": [
        {
          "internalType": "uint256",
          "name": "eventId",
          "type": "uint256"
        },
        {
          "internalType": "address",
          "name": "participant",
          "type": "address"
        }
      ],
      "name": "getParticipantTeam",
      "outputs": [
        {
          "internalType": "uint256",
          "name": "",
          "type": "uint256"
        }
      ],
      "stateMutability": "view",
      "type": "function"
    },
    {
      "inputs": [
        {
          "internalType": "bytes32",
          "name": "role",
          "type": "bytes32"
        }
      ],
      "name": "getRoleAdmin",
      "outputs": [
        {
          "internalType": "bytes32",
          "name": "",
          "type": "bytes32"
        }
      ],
      "stateMutability": "view",
      "type": "function"
    },
    {
      "inputs": [
        {
          "internalType": "uint256",
          "name": "eventId",
          "type": "uint256"
        },
        {
          "internalType": "uint256",
          "name": "teamId",
          "type": "uint256"
        }
      ],
      "name": "getTeamDetails",
      "outputs": [
        {
          "internalType": "string",
          "name": "name",
          "type": "string"
        },
        {
          "internalType": "address",
          "name": "teamLeader",
          "type": "address"
        },
        {
          "internalType": "uint256",
          "name": "memberCount",
          "type": "uint256"
        },
        {
          "internalType": "uint256",
          "name": "votes",
          "type": "uint256"
        },
        {
          "internalType": "uint256",
          "name": "rank",
          "type": "uint256"
        },
        {
          "internalType": "uint256",
          "name": "prizeAmount",
          "type": "uint256"
        },
        {
          "internalType": "bool",
          "name": "prizeDistributed",
          "type": "bool"
        }
      ],
      "stateMutability": "view",
      "type": "function"
    },
    {
      "inputs": [
        {
          "internalType": "uint256",
          "name": "eventId",
          "type": "uint256"
        },
        {
          "internalType": "uint256",
          "name": "teamId",
          "type": "uint256"
        }
      ],
      "name": "getTeamMembers",
      "outputs": [
        {
          "internalType": "address[]",
          "name": "",
          "type": "address[]"
        }
      ],
      "stateMutability": "view",
      "type": "function"
    },
    {
      "inputs": [
        {
          "internalType": "bytes32",
          "name": "role",
          "type": "bytes32"
        },
        {
          "internalType": "address",
          "name": "account",
          "type": "address"
        }
      ],
      "name": "grantRole",
      "outputs": [],
      "stateMutability": "nonpayable",
      "type": "function"
    },
    {
      "inputs": [
        {
          "internalType": "uint256",
          "name": "",
          "type": "uint256"
        }
      ],
      "name": "hackathonEvents",
      "outputs": [
        {
          "internalType": "uint256",
          "name": "id",
          "type": "uint256"
        },
        {
          "internalType": "address",
          "name": "organizer",
          "type": "address"
        },
        {
          "internalType": "string",
          "name": "name",
          "type": "string"
        },
        {
          "internalType": "string",
          "name": "description",
          "type": "string"
        },
        {
          "internalType": "uint256",
          "name": "prizePool",
          "type": "uint256"
        },
        {
          "internalType": "uint256",
          "name": "firstPrize",
          "type": "uint256"
        },
        {
          "internalType": "uint256",
          "name": "secondPrize",
          "type": "uint256"
        },
        {
          "internalType": "uint256",
          "name": "thirdPrize",
          "type": "uint256"
        },
        {
          "internalType": "uint256",
          "name": "maxTeamSize",
          "type": "uint256"
        },
        {
          "internalType": "uint256",
          "name": "maxTeams",
          "type": "uint256"
        },
        {
          "internalType": "uint256",
          "name": "teamCount",
          "type": "uint256"
        },
        {
          "internalType": "uint256",
          "name": "startDate",
          "type": "uint256"
        },
        {
          "internalType": "uint256",
          "name": "endDate",
          "type": "uint256"
        },
        {
          "internalType": "bool",
          "name": "isActive",
          "type": "bool"
        },
        {
          "internalType": "bool",
          "name": "votingOpen",
          "type": "bool"
        },
        {
          "internalType": "bool",
          "name": "resultsFinalized",
          "type": "bool"
        },
        {
          "internalType": "bool",
          "name": "isPublished",
          "type": "bool"
        }
      ],
      "stateMutability": "view",
      "type": "function"
    },
    {
      "inputs": [
        {
          "internalType": "uint256",
          "name": "eventId",
          "type": "uint256"
        },
        {
          "internalType": "address",
          "name": "participant",
          "type": "address"
        }
      ],
      "name": "hasParticipantVoted",
      "outputs": [
        {
          "internalType": "bool",
          "name": "",
          "type": "bool"
        }
      ],
      "stateMutability": "view",
      "type": "function"
    },
    {
      "inputs": [
        {
          "internalType": "uint256",
          "name": "",
          "type": "uint256"
        },
        {
          "internalType": "address",
          "name": "",
          "type": "address"
        }
      ],
      "name": "hasRegistered",
      "outputs": [
        {
          "internalType": "bool",
          "name": "",
          "type": "bool"
        }
      ],
      "stateMutability": "view",
      "type": "function"
    },
    {
      "inputs": [
        {
          "internalType": "bytes32",
          "name": "role",
          "type": "bytes32"
        },
        {
          "internalType": "address",
          "name": "account",
          "type": "address"
        }
      ],
      "name": "hasRole",
      "outputs": [
        {
          "internalType": "bool",
          "name": "",
          "type": "bool"
        }
      ],
      "stateMutability": "view",
      "type": "function"
    },
    {
      "inputs": [
        {
          "internalType": "uint256",
          "name": "",
          "type": "uint256"
        },
        {
          "internalType": "address",
          "name": "",
          "type": "address"
        }
      ],
      "name": "hasVoted",
      "outputs": [
        {
          "internalType": "bool",
          "name": "",
          "type": "bool"
        }
      ],
      "stateMutability": "view",
      "type": "function"
    },
    {
      "inputs": [
        {
          "internalType": "address",
          "name": "owner",
          "type": "address"
        },
        {
          "internalType": "address",
          "name": "operator",
          "type": "address"
        }
      ],
      "name": "isApprovedForAll",
      "outputs": [
        {
          "internalType": "bool",
          "name": "",
          "type": "bool"
        }
      ],
      "stateMutability": "view",
      "type": "function"
    },
    {
      "inputs": [
        {
          "internalType": "uint256",
          "name": "eventId",
          "type": "uint256"
        },
        {
          "internalType": "uint256",
          "name": "teamId",
          "type": "uint256"
        }
      ],
      "name": "joinTeam",
      "outputs": [],
      "stateMutability": "nonpayable",
      "type": "function"
    },
    {
      "inputs": [],
      "name": "name",
      "outputs": [
        {
          "internalType": "string",
          "name": "",
          "type": "string"
        }
      ],
      "stateMutability": "view",
      "type": "function"
    },
    {
      "inputs": [
        {
          "internalType": "uint256",
          "name": "tokenId",
          "type": "uint256"
        }
      ],
      "name": "ownerOf",
      "outputs": [
        {
          "internalType": "address",
          "name": "",
          "type": "address"
        }
      ],
      "stateMutability": "view",
      "type": "function"
    },
    {
      "inputs": [
        {
          "internalType": "uint256",
          "name": "",
          "type": "uint256"
        },
        {
          "internalType": "address",
          "name": "",
          "type": "address"
        }
      ],
      "name": "participantToTeam",
      "outputs": [
        {
          "internalType": "uint256",
          "name": "",
          "type": "uint256"
        }
      ],
      "stateMutability": "view",
      "type": "function"
    },
    {
      "inputs": [
        {
          "internalType": "uint256",
          "name": "eventId",
          "type": "uint256"
        }
      ],
      "name": "publishHackathon",
      "outputs": [],
      "stateMutability": "nonpayable",
      "type": "function"
    },
    {
      "inputs": [
        {
          "internalType": "uint256",
          "name": "eventId",
          "type": "uint256"
        },
        {
          "internalType": "string",
          "name": "teamName",
          "type": "string"
        }
      ],
      "name": "registerTeam",
      "outputs": [
        {
          "internalType": "uint256",
          "name": "",
          "type": "uint256"
        }
      ],
      "stateMutability": "nonpayable",
      "type": "function"
    },
    {
      "inputs": [
        {
          "internalType": "address",
          "name": "account",
          "type": "address"
        }
      ],
      "name": "removeOrganizer",
      "outputs": [],
      "stateMutability": "nonpayable",
      "type": "function"
    },
    {
      "inputs": [
        {
          "internalType": "bytes32",
          "name": "role",
          "type": "bytes32"
        },
        {
          "internalType": "address",
          "name": "account",
          "type": "address"
        }
      ],
      "name": "renounceRole",
      "outputs": [],
      "stateMutability": "nonpayable",
      "type": "function"
    },
    {
      "inputs": [
        {
          "internalType": "bytes32",
          "name": "role",
          "type": "bytes32"
        },
        {
          "internalType": "address",
          "name": "account",
          "type": "address"
        }
      ],
      "name": "revokeRole",
      "outputs": [],
      "stateMutability": "nonpayable",
      "type": "function"
    },
    {
      "inputs": [
        {
          "internalType": "address",
          "name": "from",
          "type": "address"
        },
        {
          "internalType": "address",
          "name": "to",
          "type": "address"
        },
        {
          "internalType": "uint256",
          "name": "tokenId",
          "type": "uint256"
        }
      ],
      "name": "safeTransferFrom",
      "outputs": [],
      "stateMutability": "nonpayable",
      "type": "function"
    },
    {
      "inputs": [
        {
          "internalType": "address",
          "name": "from",
          "type": "address"
        },
        {
          "internalType": "address",
          "name": "to",
          "type": "address"
        },
        {
          "internalType": "uint256",
          "name": "tokenId",
          "type": "uint256"
        },
        {
          "internalType": "bytes",
          "name": "data",
          "type": "bytes"
        }
      ],
      "name": "safeTransferFrom",
      "outputs": [],
      "stateMutability": "nonpayable",
      "type": "function"
    },
    {
      "inputs": [
        {
          "internalType": "address",
          "name": "operator",
          "type": "address"
        },
        {
          "internalType": "bool",
          "name": "approved",
          "type": "bool"
        }
      ],
      "name": "setApprovalForAll",
      "outputs": [],
      "stateMutability": "nonpayable",
      "type": "function"
    },
    {
      "inputs": [
        {
          "internalType": "string",
          "name": "baseURI",
          "type": "string"
        }
      ],
      "name": "setBaseURI",
      "outputs": [],
      "stateMutability": "nonpayable",
      "type": "function"
    },
    {
      "inputs": [
        {
          "internalType": "uint256",
          "name": "eventId",
          "type": "uint256"
        },
        {
          "internalType": "bool",
          "name": "votingState",
          "type": "bool"
        }
      ],
      "name": "setVotingState",
      "outputs": [],
      "stateMutability": "nonpayable",
      "type": "function"
    },
    {
      "inputs": [
        {
          "internalType": "bytes4",
          "name": "interfaceId",
          "type": "bytes4"
        }
      ],
      "name": "supportsInterface",
      "outputs": [
        {
          "internalType": "bool",
          "name": "",
          "type": "bool"
        }
      ],
      "stateMutability": "view",
      "type": "function"
    },
    {
      "inputs": [],
      "name": "symbol",
      "outputs": [
        {
          "internalType": "string",
          "name": "",
          "type": "string"
        }
      ],
      "stateMutability": "view",
      "type": "function"
    },
    {
      "inputs": [
        {
          "internalType": "uint256",
          "name": "",
          "type": "uint256"
        },
        {
          "internalType": "uint256",
          "name": "",
          "type": "uint256"
        },
        {
          "internalType": "address",
          "name": "",
          "type": "address"
        }
      ],
      "name": "teamMembers",
      "outputs": [
        {
          "internalType": "bool",
          "name": "",
          "type": "bool"
        }
      ],
      "stateMutability": "view",
      "type": "function"
    },
    {
      "inputs": [
        {
          "internalType": "uint256",
          "name": "",
          "type": "uint256"
        },
        {
          "internalType": "uint256",
          "name": "",
          "type": "uint256"
        },
        {
          "internalType": "uint256",
          "name": "",
          "type": "uint256"
        }
      ],
      "name": "teamMembersList",
      "outputs": [
        {
          "internalType": "address",
          "name": "",
          "type": "address"
        }
      ],
      "stateMutability": "view",
      "type": "function"
    },
    {
      "inputs": [
        {
          "internalType": "uint256",
          "name": "",
          "type": "uint256"
        },
        {
          "internalType": "uint256",
          "name": "",
          "type": "uint256"
        }
      ],
      "name": "teams",
      "outputs": [
        {
          "internalType": "uint256",
          "name": "id",
          "type": "uint256"
        },
        {
          "internalType": "string",
          "name": "name",
          "type": "string"
        },
        {
          "internalType": "address",
          "name": "teamLeader",
          "type": "address"
        },
        {
          "internalType": "uint256",
          "name": "memberCount",
          "type": "uint256"
        },
        {
          "internalType": "uint256",
          "name": "votes",
          "type": "uint256"
        },
        {
          "internalType": "uint256",
          "name": "rank",
          "type": "uint256"
        },
        {
          "internalType": "uint256",
          "name": "prizeAmount",
          "type": "uint256"
        },
        {
          "internalType": "bool",
          "name": "prizeDistributed",
          "type": "bool"
        },
        {
          "internalType": "bool",
          "name": "isRegistered",
          "type": "bool"
        }
      ],
      "stateMutability": "view",
      "type": "function"
    },
    {
      "inputs": [
        {
          "internalType": "uint256",
          "name": "tokenId",
          "type": "uint256"
        }
      ],
      "name": "tokenURI",
      "outputs": [
        {
          "internalType": "string",
          "name": "",
          "type": "string"
        }
      ],
      "stateMutability": "view",
      "type": "function"
    },
    {
      "inputs": [
        {
          "internalType": "address",
          "name": "from",
          "type": "address"
        },
        {
          "internalType": "address",
          "name": "to",
          "type": "address"
        },
        {
          "internalType": "uint256",
          "name": "tokenId",
          "type": "uint256"
        }
      ],
      "name": "transferFrom",
      "outputs": [],
      "stateMutability": "nonpayable",
      "type": "function"
    }
  ],
  "bytecode": "0x60406080815234620005d057620053c9803803806200001e816200060b565b92833981019060208082840312620005d05781516001600160401b0392838211620005d0570192601f90808286011215620005d0578451848111620005d557601f199562000072828501881686016200060b565b92828452858383010111620005d057849060005b838110620005bb57505060009183010152620000a1620005eb565b92600e84526d121858dad85d1a1bdb905dd85c9960921b81850152620000c6620005eb565b600490818152634841434b60e01b838201528551878111620004bf57600054966001978881811c91168015620005b0575b868210146200059b5790818884931162000545575b508590888311600114620004e057600092620004d4575b5050600019600383901b1c191690871b176000555b805190878211620004bf5786548781811c91168015620004b4575b858210146200049f5790818784931162000449575b508490878311600114620003e557600092620003d9575b5050600019600383901b1c191690861b1785555b60008052600782528760002033600052825260ff886000205416156200039c575b7fa49807205ce4d355092ef5a8a18f56e8913cf4a201fbe287825b095693c2177580600052600783528860002033600052835260ff896000205416156200035d575b5082519586116200034857601254908582811c921680156200033d575b83831014620003285750838111620002dc575b50809285116001146200027157508394509083929160009462000265575b50501b916000199060031b1c1916176012555b51614d779081620006328239f35b01519250388062000244565b929484908116601260005284600020946000905b88838310620002c15750505010620002a7575b505050811b0160125562000257565b015160001960f88460031b161c1916905538808062000298565b85870151885590960195948501948793509081019062000285565b6012600052816000208480880160051c8201928489106200031e575b0160051c019085905b8281106200031157505062000226565b6000815501859062000301565b92508192620002f8565b602290634e487b7160e01b6000525260246000fd5b91607f169162000213565b604190634e487b7160e01b6000525260246000fd5b806000526007835288600020336000528352886000208660ff1982541617905533903390600080516020620053a9833981519152600080a438620001f6565b600080526007825287600020336000528252876000208560ff1982541617905533336000600080516020620053a98339815191528180a4620001b4565b0151905038806200017f565b908a8994169184600052866000209260005b8882821062000432575050841162000418575b505050811b01855562000193565b015160001960f88460031b161c191690553880806200040a565b8385015186558c97909501949384019301620003f7565b90915087600052846000208780850160051c82019287861062000495575b918a91869594930160051c01915b8281106200048557505062000168565b600081558594508a910162000475565b9250819262000467565b602284634e487b7160e01b6000525260246000fd5b90607f169062000153565b604183634e487b7160e01b6000525260246000fd5b01519050388062000123565b908b8a94169160008052876000209260005b898282106200052e575050841162000514575b505050811b0160005562000138565b015160001960f88460031b161c1916905538808062000505565b8385015186558d97909501949384019301620004f2565b90915060008052856000208880850160051c82019288861062000591575b918b91869594930160051c01915b828110620005815750506200010c565b600081558594508b910162000571565b9250819262000563565b602285634e487b7160e01b6000525260246000fd5b90607f1690620000f7565b81810183015185820184015286920162000086565b600080fd5b634e487b7160e01b600052604160045260246000fd5b60408051919082016001600160401b03811183821017620005d557604052565b6040519190601f01601f191682016001600160401b03811183821017620005d55760405256fe608080604052600436101561001357600080fd5b60003560e01c90816301ffc9a71461378157508063064f42a41461372157806306fdde031461367e578063081812fc14613660578063095ea7b3146134e65780631975c84c146133d757806323b872dd146133ae578063248a9ca31461337f5780632c0a3f89146131355780632f2ff15d146130825780633031296014612f785780633099752d14612f3057806336568abe14612e9e57806338673ee014612e255780633efb6f6614612db957806342842e0e14612d915780634385963214612d44578063443e91a414612b5757806344ade56d14612a8657806347d52bf01461297f5780634d8b3abd1461294057806355f804b314612801578063563d65a5146126eb5780636352211e146126bb57806370a082311461262457806375b238fc146125e95780637909cb59146125ae578063797c0c591461251f5780637f19288f14611f8557806380b4ad1414611ed25780638358d1c514611a8d57806391d1485414611a4057806395d89b4114611975578063a217fddf14611959578063a22cb46514611887578063ab7fb1f014611761578063af7a58a1146116ae578063b88d4fde1461164f578063c526815714610ef0578063c87b56dd14610eb9578063d547741f14610e78578063e4725f0214610d66578063e482d7f814610743578063e67ed67314610679578063e853ce6414610425578063e985e9c5146103cf578063ec38d5a0146102ec578063ef15914a1461029f5763f5b857581461023a57600080fd5b3461029a57606036600319011261029a57604435600435600052600d60205260406000206024356000526020526040600020805482101561029a576020916102819161391a565b905460405160039290921b1c6001600160a01b03168152f35b600080fd5b3461029a57604036600319011261029a576102b8613836565b600435600052600e60205260406000209060018060a01b0316600052602052602060ff604060002054166040519015158152f35b3461029a57602036600319011261029a57600435801515806103c3575b610312906148ca565b600052600a60205261037360406000206004810154600b820154600c83015460ff600d850154600a8601549260098701549461038161035f600361035860028c01613b04565b9a01613b04565b6040519a8b9a610140808d528c019061386f565b908a820360208c015261386f565b96604089015260608801526080870152818116151560a0870152818160081c16151560c087015260101c16151560e08501526101008401526101208301520390f35b50600854811115610309565b3461029a57604036600319011261029a576103e8613820565b6103f0613836565b9060018060a01b03809116600052600560205260406000209116600052602052602060ff604060002054166040519015158152f35b3461029a57610433366138c9565b8115158061066d575b610445906148ca565b816000526020600a815260ff61046481600d6040600020015416614972565b83600052600a825261048281600d6040600020015460181c166149cd565b83600052600a82526104bd6040600020600d8101549083808316928361065f575b83610651575b505081610642575b81610633575b50614a2b565b83600052600b825260406000208360005282526003604060002085600052600a845261051a6040600020936104fa81600785015460081c16614b2b565b87600052600e865260406000203360005286526040600020541615614a8b565b01906008825491015411156105ff57916105fa917f3783ef409f5decedcdbe5b9c311a61a15fd9e9c632f5b400a12f4cdac8d918319385600052600c82526040600020836000528252604060002033600052825260406000209060ff199160018382541617905586600052600d835260406000208460005283526105a2336040600020614af0565b6105ac8154614ae1565b90556000868152600e83526040808220338084529085528183208054909416600117909355878252600f84528082208383529093528290208390558151928352602083015290918291820190565b0390a2005b60405162461bcd60e51b815260048101839052600c60248201526b1519585b481a5cc8199d5b1b60a21b6044820152606490fd5b600c91500154421115866104b7565b600b81015442101591506104b1565b60081c1615915083886104a9565b9250808360181c16926104a3565b5060085482111561043c565b3461029a57610687366138c9565b9080151580610737575b61069a906148ca565b600052600b602052604060002090600052602052610711604060002060078101546106ca60ff8260081c16614b2b565b60ff60018060a01b036002840154169160038401549360048101546005820154906106fc600160068501549401613b04565b9660405198899860e08a5260e08a019061386f565b96602089015260408801526060870152608086015260a085015216151560c08301520390f35b50600854811115610691565b61014036600319011261029a576004356001600160401b03811161029a5761076f9036906004016139f1565b6024356001600160401b03811161029a5761078e9036906004016139f1565b906064359060ff8216820361029a576084359060ff8216820361029a5760a4359260ff8416840361029a57815115610d2a57606460ff6107d7866107d287866148b6565b6148b6565b1603610ce65760449384353403610ca25761012435610104351015610c545742610104351115610c105760c43515610bc057600360e43510610b7c57600160085401938460085584600052600a60205260406000209285845560018401336001600160601b0360a01b82541617905584516001600160401b038111610ab9576108636002860154613a1e565b601f8111610b47575b50806020601f8211600114610ada57600091610acf575b508160011b916000199060031b1c19161760028501555b87516001600160401b038111610ab9576020986108ba6003870154613a1e565b601f8111610a7b575b508990601f83116001146109ca579860ff7fa94cd0b7a6a30768493dd3c96d659f8684f84657295d41125416f89e1027f87698966064610989838b998e9f61097b836109af9f9c600d60079e8e8a9f6109979f8c986000926109bf575b50508160011b916000199060031b1c19161760038201555b8c35600482015560c435600882015560e435600982015561010435600b82015561012435600c82015501630100000163ff0000ff1982541617905516893561476d565b0460058c015516853561476d565b04600688015516903561476d565b0491015560405191829160408352604083019061386f565b33878301520390a2604051908152f35b015190503880610920565b90600387016000528a6000209160005b601f1985168110610a6457507fa94cd0b7a6a30768493dd3c96d659f8684f84657295d41125416f89e1027f8769896606461098960ff8b998e9f9661097b836109af9f9c600d60079e60018a9f6109979f8c98879f83601f19811610610a4b575b505050811b016003820155610938565b015160001960f88460031b161c19169055388080610a3b565b91928c6001819286850151815501940192016109da565b610aa990600388016000528b600020601f850160051c8101918d8610610aaf575b601f0160051c019061489f565b8a6108c3565b9091508190610a9c565b634e487b7160e01b600052604160045260246000fd5b90508601518a610883565b91506002860160005260206000206000925b601f1983168410610b2f576001935082601f19811610610b16575b5050811b01600285015561089a565b88015160001960f88460031b161c191690558a80610b07565b88810151825560209384019360019092019101610aec565b610b7690600287016000526020600020601f840160051c81019160208510610aaf57601f0160051c019061489f565b8961086c565b60405162461bcd60e51b815260206004820152601b60248201527f4d75737420616c6c6f77206174206c656173742033207465616d73000000000081870152606490fd5b60405162461bcd60e51b8152602060048201526024808201527f4d6178207465616d2073697a65206d757374206265206772656174657220746881870152630616e20360e41b6064820152608490fd5b60405162461bcd60e51b815260206004820181905260248201527f53746172742064617465206d75737420626520696e207468652066757475726581870152606490fd5b60405162461bcd60e51b815260206004820152602160248201527f456e642064617465206d7573742062652061667465722073746172742064617481870152606560f81b6064820152608490fd5b60405162461bcd60e51b815260206004820181905260248201527f53656e742076616c7565206d757374206d61746368207072697a6520706f6f6c81870152606490fd5b606460405162461bcd60e51b815260206004820152602060248201527f5072697a652070657263656e7461676573206d75737420746f74616c203130306044820152fd5b60405162461bcd60e51b81526020600482015260146024820152734e616d652063616e6e6f7420626520656d70747960601b6044820152606490fd5b3461029a5760208060031936011261029a57610d80613820565b610d88613bbf565b6001600160a01b03168015610e41577f4d2e7a1e3f5dd6e203f087b15756ccf0e4ccd947fe1b639a38540089a1e47f63918260005260078152610dd2600160406000200154613dda565b8260005260078152604060002082600052815260ff6040600020541615610df557005b826000526007815260406000209082600052526040600020600160ff1982541617905533917f2f8788117e7eff1d82e926ec794901d17c78024a50270940304540a733656f0d600080a4005b60405162461bcd60e51b815260048101839052600f60248201526e496e76616c6964206164647265737360881b6044820152606490fd5b3461029a57604036600319011261029a57610eb7600435610e97613836565b90806000526007602052610eb2600160406000200154613dda565b613ee5565b005b3461029a57602036600319011261029a57610eec610ed86004356144f8565b60405191829160208352602083019061386f565b0390f35b3461029a57606036600319011261029a57610f09613a0f565b604435906001600160401b03821161029a573660238301121561029a57816004013591610f3583613ba8565b92610f43604051948561397e565b8084526024602085019160051b8301019136831161029a57602401905b82821061163f57505050600435151580611631575b610f7e906148ca565b600435600052600a602052610f9d60ff600d6040600020015416614972565b600435600052600a602052604060002090600d82015490610fc360ff8360181c16614b6d565b610fd360ff8360101c1615614926565b600a83015491600383106115ec57600c84015442119081156115dd575b501561158957156114bb57600383511061146c5760005b8351811080611462575b1561111e57816110218286614c2d565b5110156110e757600435600052600b60205260406000206110428286614c2d565b5160005260205261106060ff60076040600020015460081c16614b2b565b60005b818110611079575061107490614ae1565b611007565b6110838186614c2d565b5161108e8387614c2d565b51146110a25761109d90614ae1565b611063565b60405162461bcd60e51b815260206004820152601960248201527f4475706c6963617465207465616d20696e2072616e6b696e67000000000000006044820152606490fd5b60405162461bcd60e51b815260206004820152600f60248201526e125b9d985b1a59081d19585b481251608a1b6044820152606490fd5b509161112983614bfb565b9260005b600381106114445750600360005b8281106113c857505050506003905b825182101561124e5760035b611161838551614c41565b6003810190818111611227576002019081116112275781101561123d57600435600052600b9081602052604060002061119a8287614c2d565b51600052602052600460406000200154916004356000526020526040600020916001820190818311611227576111f0936111d48389614c2d565b51600052602052600460406000200154116111f5575b50614ae1565b611156565b6112206112028388614c2d565b519161120e8189614c2d565b51611219858a614c2d565b5287614c2d565b52856111ea565b634e487b7160e01b600052601160045260246000fd5b509061124890614ae1565b9061114a565b9190505b60005b81518110806113be575b156112f257600435600052600b602052604060002061127e8284614c2d565b5160005260205260406000209060019182820192838311611227576112bb93600583015582156000146112c0575060066005860154910155614ae1565b611255565b82036112d457600680860154910155614ae1565b600282146112e25750614ae1565b60066007860154910155846111ea565b5090600435600052601160205260406000208251906001600160401b038211610ab957600160401b8211610ab95780548282558083106113a0575b506020840190600052602060002060005b83811061138c57600d8501805462ff0000191662010000179055604051600435907f020e11c6e7cca8ab95c4a970e5885738534e75bc3bc2336c9274ccd53d0abf0f90806105fa8a826138df565b60019060208451940193818401550161133e565b6113b89082600052836020600020918201910161489f565b8461132d565b506003811061125f565b6000805b6003811061141b575b501580611411575b6113f0575b6113eb90614ae1565b61113b565b9061140981836114036113eb948a614c2d565b52614ae1565b9190506113e2565b50855182106113dd565b6114258187614c2d565b51831461143a5761143590614ae1565b6113cc565b50506001876113d5565b8061145261145d9285614c2d565b516114038288614c2d565b61112d565b5060038110611011565b60405162461bcd60e51b815260206004820152602160248201527f4d7573742070726f76696465206174206c6561737420746f702033207465616d6044820152607360f81b6064820152608490fd5b91506114c682614bfb565b9160005b8181106115755750506000905b825182101561156d5760005b6114ee838551614c41565b60001981019081116112275781101561155c57600435600052600b9081602052604060002061151d8287614c2d565b5160005260205260046040600020015491600435600052602052604060002091600182019081831161122757611557936111d48389614c2d565b6114e3565b509061156790614ae1565b906114d7565b919050611252565b80806114036115849387614c2d565b6114ca565b60405162461bcd60e51b815260206004820152602660248201527f4576656e74207374696c6c20696e2070726f6772657373206f7220766f74696e604482015265339037b832b760d11b6064820152608490fd5b60ff915060081c161585610ff0565b60405162461bcd60e51b815260206004820152601b60248201527f4e6f7420656e6f756768207465616d73207265676973746572656400000000006044820152606490fd5b506008546004351115610f75565b8135815260209182019101610f60565b3461029a57608036600319011261029a57611668613820565b611670613836565b606435916001600160401b03831161029a573660238401121561029a576116a4610eb79336906024816004013591016139ba565b916044359161406a565b3461029a5760208060031936011261029a5760043580151580611755575b6116d5906148ca565b80600052600a82526116f460ff600d6040600020015460101c16614c4e565b60005260118152604060002090604051908181845491828152019360005281600020916000905b82821061173e57610eec856117328189038261397e565b604051918291826138df565b83548652948501946001938401939091019061171b565b506008548111156116cc565b3461029a57602036600319011261029a576004356000908152600a60205260409020805460018201546001600160a01b0316916117a060028201613b04565b6117ac60038301613b04565b91600481015492600582015460068301546007840154600885015490600986015492600a87015494600b88015496600c89015498600d0154996040519d8e809e8152602001528c6102206040819201528d016118079161386f565b8c810360608e01526118189161386f565b9960808c015260a08b015260c08a015260e089015261010088015261012087015261014086015261016085015261018084015260ff811615156101a08401528060081c60ff1615156101c08401528060101c60ff1615156101e084015260181c60ff1615156102008301520390f35b3461029a57604036600319011261029a576118a0613820565b6118a8613a0f565b6001600160a01b03909116903382146119145733600052600560205260406000208260005260205260406000209015159060ff1981541660ff83161790556040519081527f17307eab39ab6107e8899845ad3d59bd9653f200f220920489ca2b5937696c3160203392a3005b60405162461bcd60e51b815260206004820152601960248201527f4552433732313a20617070726f766520746f2063616c6c6572000000000000006044820152606490fd5b3461029a57600036600319011261029a57602060405160008152f35b3461029a57600036600319011261029a576040516000600180549061199982613a1e565b80855291818116908115611a1957506001146119c0575b610eec84610ed88186038261397e565b600081815292507fb10e2d527612073b26eecdfd717e6a320cf44b4afac2b0732d9fcbe2b7fa0cf65b828410611a01575050508101602001610ed8826119b0565b805460208587018101919091529093019281016119e9565b60ff191660208087019190915292151560051b85019092019250610ed891508390506119b0565b3461029a57604036600319011261029a57611a59613836565b600435600052600760205260406000209060018060a01b0316600052602052602060ff604060002054166040519015158152f35b3461029a57604036600319011261029a576001600160401b0360043560243582811161029a57611ac19036906004016139f1565b9080151580611ec6575b611ad4906148ca565b80600052602092600a845260ff92611af584600d6040600020015416614972565b82600052600a8552611b1384600d6040600020015460181c166149cd565b82600052600a8552611b4d6040600020600d81015490868083169283611eb8575b83611eaa575b505081611e9b575b81611e8c5750614a2b565b805115611e475782600052600a8552611b81604060002094600e875260406000203360005287526040600020541615614a8b565b600a840160098154950154851015611e0a57611b9c85614ae1565b905582600052600b8552604060002084600052855260406000208481556001908181018351948511610ab9578594611bd48254613a1e565b601f8111611dda575b5088601f8211600114611d4c5792611cff9492826007937fd0ba7576069425c6e7163cf2884b01d9d04e8d2739ef48b27cedc97793b3c4cd9896600091611d41575b50600019600383901b1c191690851b1790555b60028101336001600160601b0360a01b8254161790558260038201550161010061ff001982541617905584600052600c88526040600020876000528852604060002033600052885260406000209060ff1991818382541617905585600052600d89526040600020886000528952611cad336040600020614af0565b85600052600e8952604060002033600052895260406000209182541617905583600052600f8752604060002033600052875285604060002055604051918291878352606089840152606083019061386f565b3360408301520390a2604080518381523360208201527f3783ef409f5decedcdbe5b9c311a61a15fd9e9c632f5b400a12f4cdac8d918319190a2604051908152f35b90508601518d611c1f565b601f19821690836000528a6000209160005b8c828210611dc357505095837fd0ba7576069425c6e7163cf2884b01d9d04e8d2739ef48b27cedc97793b3c4cd989693829693600796611cff9a10611daa575b5050811b019055611c32565b88015160001960f88460031b161c191690558d80611d9e565b8984015185558b9a50938801939283019201611d5e565b611e0490836000528a600020601f840160051c8101918c8510610aaf57601f0160051c019061489f565b89611bdd565b60405162461bcd60e51b815260048101879052601560248201527413585e1a5b5d5b481d19585b5cc81c995858da1959605a1b6044820152606490fd5b60405162461bcd60e51b815260048101869052601960248201527f5465616d206e616d652063616e6e6f7420626520656d707479000000000000006044820152606490fd5b600c91500154421115876104b7565b600b8101544210159150611b42565b60081c161591508689611b3a565b9250808360181c1692611b34565b50600854811115611acb565b3461029a57611ee0366138c9565b90600052600b60205260406000209060005260205260406000208054611f0860018301613b04565b9160ff60018060a01b036002830154169160038101549060048101546005820154906007600684015493015493611f51604051998a998a526101208060208c01528a019061386f565b9660408901526060880152608087015260a086015260c0850152818116151560e085015260081c1615156101008301520390f35b3461029a57611f93366138c9565b9080151580612513575b611fa6906148ca565b80600052600a602052611fc360ff600d6040600020015416614972565b80600052600a602052604060002090600b602052604060002083600052602052611ffb60ff600d604060002094015460101c16614c4e565b61201360058301548015159081612507575b50614c92565b80600052600d6020526040600020836000526020526040600020926040518085602082975493848152019060005260206000209260005b8181106124e557505061205f9250038561397e565b60005b8451811015610eb7576009805460010190819055906001600160a01b036120898288614c2d565b511680156124a1576000838152600260205260409020548391906120b9906001600160a01b031615155b15614cd5565b6000828152600260205260409020546120dc906001600160a01b031615156120b3565b8060005260036020526040600020600181540190558160005260026020526040600020816001600160601b0360a01b82541617905560007fddf252ad1be2c89b69c2b068fc378daa952ba7f163c4a11628f55a4df523b3ef8180a461214084614605565b61214d6005870154614605565b9061215784614605565b90604051928391600090601280549061216f82613a1e565b916001811690811561247d575060011461242b575b5050916020826121a1856121ea989560029897519485920161384c565b0190602f60f81b918281526121c082518093602060018501910161384c565b019060018201526121da825180936020878501910161384c565b0103601d1981018452018261397e565b6000838152600260205260409020546001600160a01b0316156123cf5782600052600660205260406000209281516001600160401b038111610ab95786926122328654613a1e565b601f811161239d575b50602090601f83116001146123045795826080937f20be671e53b9d2e3b3ccf0b91568093805ea1efc308c55df0096021e954a882895936122f4996000926122f9575b50508160011b916000199060031b1c19161790555b7ff8e1a15aba9398e019f0b49df1a4fde98ee17ae345cb5f6b5e2c27f5033e8ce76020604051838152a16001600160a01b036122cf868c614c2d565b51169060058a01549060405192898452602084015260408301526060820152a2614ae1565b612062565b015190508d8061227e565b9192949580945060005260206000209160005b601f19851681106123855750936001846080946122f49998948c987f20be671e53b9d2e3b3ccf0b91568093805ea1efc308c55df0096021e954a882898601f1981161061236c575b505050811b019055612293565b015160001960f88460031b161c191690558d808061235f565b82820151845560019093019260209283019201612317565b6123c990876000526020600020601f850160051c81019160208610610aaf57601f0160051c019061489f565b8a61223b565b60405162461bcd60e51b815260206004820152602e60248201527f45524337323155524953746f726167653a2055524920736574206f66206e6f6e60448201526d32bc34b9ba32b73a103a37b5b2b760911b6064820152608490fd5b919394509150600052600080516020614d228339815191526000905b828210612464575085939291840160209081019291506002612184565b8054602088840181019190915290910190600101612447565b60ff1916602080890191909152831515909302870183019450600291506121849050565b606460405162461bcd60e51b815260206004820152602060248201527f4552433732313a206d696e7420746f20746865207a65726f20616464726573736044820152fd5b84546001600160a01b031683526001948501948994506020909301920161204a565b6003915011158561200d565b50600854811115611f9d565b3461029a57604036600319011261029a5760043561253b613836565b90801515806125a2575b61254e906148ca565b80600052600e60205260406000209160018060a01b0316918260005260205261257e60ff60406000205416614baf565b600052600f6020526040600020906000526020526020604060002054604051908152f35b50600854811115612545565b3461029a57600036600319011261029a5760206040517f4d2e7a1e3f5dd6e203f087b15756ccf0e4ccd947fe1b639a38540089a1e47f638152f35b3461029a57600036600319011261029a5760206040517fa49807205ce4d355092ef5a8a18f56e8913cf4a201fbe287825b095693c217758152f35b3461029a57602036600319011261029a576001600160a01b03612645613820565b1680156126645760005260036020526020604060002054604051908152f35b60405162461bcd60e51b815260206004820152602960248201527f4552433732313a2061646472657373207a65726f206973206e6f7420612076616044820152683634b21037bbb732b960b91b6064820152608490fd5b3461029a57602036600319011261029a5760206126d9600435613fa7565b6040516001600160a01b039091168152f35b3461029a57604036600319011261029a57600435612707613a0f565b811515806127f5575b612719906148ca565b81600052600a60205261273660ff600d6040600020015416614972565b81600052600a602052604060002090600d820191600b83549161275e60ff8460181c16614b6d565b015442106127b8577f610c6aff0a27034b1a19b3a45acec1ce76bf7ce7fd98e7db70223b2ef58f02209260209261279b60ff8460101c1615614926565b15159161ff008360081b169061ff001916179055604051908152a2005b60405162461bcd60e51b8152602060048201526015602482015274115d995b9d081a185cc81b9bdd081cdd185c9d1959605a1b6044820152606490fd5b50600854821115612710565b3461029a5760208060031936011261029a576001600160401b0360043581811161029a576128339036906004016139f1565b9161283c613bbf565b8251918211610ab957612850601254613a1e565b601f8111612904575b5080601f83116001146128955750819260009261288a575b5050600019600383901b1c191660019190911b17601255005b015190508280612871565b90601f198316936012600052600080516020614d22833981519152926000905b8682106128ec57505083600195106128d3575b505050811b01601255005b015160001960f88460031b161c191690558280806128c8565b806001859682949686015181550195019301906128b5565b61293a906012600052600080516020614d22833981519152601f850160051c810191848610610aaf57601f0160051c019061489f565b83612859565b3461029a5761294e366138c9565b9060005260116020526040600020805482101561029a576020916129719161391a565b90546040519160031b1c8152f35b3461029a5761298d366138c9565b81151580612a7a575b61299f906148ca565b81600052602091600b835260406000208260005283526129cc60ff60076040600020015460081c16614b2b565b600052600d82526040600020906000528152604060002060405190818382549182815201908192600052846000209060005b86828210612a5d578686612a148288038361397e565b604051928392818401908285525180915260408401929160005b828110612a3d57505050500390f35b83516001600160a01b031685528695509381019392810192600101612a2e565b83546001600160a01b0316855290930192600192830192016129fe565b50600854821115612996565b3461029a5760208060031936011261029a57612aa0613820565b612aa8613bbf565b7f4d2e7a1e3f5dd6e203f087b15756ccf0e4ccd947fe1b639a38540089a1e47f63918260005260078152612ae3600160406000200154613dda565b60008381526007825260408082206001600160a01b0390941680835293835290205460ff16612b0e57005b82600052600781526040600020908260005252604060002060ff19815416905533917ff6391f5c32d9c69d2a47ea670b442974b53935d1edc7fd64eb21e047a839171b600080a4005b3461029a57612b65366138c9565b81151580612d38575b612b77906148ca565b816000526020600a8152612b9560ff600d6040600020015416614972565b82600052600a81526040600020600b82526040600020836000528252612bc960ff600d604060002093015460101c16614c4e565b612be060058201548015159081612d2c5750614c92565b600781019081549060ff8216612ce75760068101928354928315612cac5760ff1916600117905560020180546001600160a01b03926000918291829182919087165af1612c2b61437f565b5015612c6f5791606093917fd57881d0351ba0d08d555b2dd3dd3f2496bac662d1db289a15f198f8b32db2b9959354169054916040519384528301526040820152a2005b60405162461bcd60e51b8152600481018590526015602482015274141c9a5e99481d1c985b9cd9995c8819985a5b1959605a1b6044820152606490fd5b60405162461bcd60e51b8152600481018790526013602482015272139bc81c1c9a5e9948185b5bdd5b9d081cd95d606a1b6044820152606490fd5b60405162461bcd60e51b815260048101859052601960248201527f5072697a6520616c7265616479206469737472696275746564000000000000006044820152606490fd5b6003915011158661200d565b50600854821115612b6e565b3461029a57604036600319011261029a57612d5d613836565b600435600052601060205260406000209060018060a01b0316600052602052602060ff604060002054166040519015158152f35b3461029a57610eb7612da236613894565b9060405192612db084613948565b6000845261406a565b3461029a57604036600319011261029a57600435612dd5613836565b9080151580612e19575b612de8906148ca565b600052601060205260406000209060018060a01b0316600052602052602060ff604060002054166040519015158152f35b50600854811115612ddf565b3461029a57602036600319011261029a5760043580151580612e92575b612e4b906148ca565b600052600a602052600a60406000200154612e6581614bfb565b9060005b818110612e7e5760405180610eec85826138df565b8080611403612e8d9386614c2d565b612e69565b50600854811115612e42565b3461029a57604036600319011261029a57612eb7613836565b336001600160a01b03821603612ed357610eb790600435613ee5565b60405162461bcd60e51b815260206004820152602f60248201527f416363657373436f6e74726f6c3a2063616e206f6e6c792072656e6f756e636560448201526e103937b632b9903337b91039b2b63360891b6064820152608490fd5b3461029a57604036600319011261029a57612f49613836565b600435600052600f60205260406000209060018060a01b03166000526020526020604060002054604051908152f35b3461029a57602036600319011261029a5760043580151580613076575b612f9e906148ca565b600052600a6020526040600020600d81019081549160ff831615613038576000808093819386612fd460ff8260101c1615614926565b60ff191690556001810154600490910154906001600160a01b03165af1612ff961437f565b501561300157005b60405162461bcd60e51b815260206004820152600f60248201526e151c985b9cd9995c8819985a5b1959608a1b6044820152606490fd5b60405162461bcd60e51b81526020600482015260166024820152754576656e7420616c726561647920696e61637469766560501b6044820152606490fd5b50600854811115612f95565b3461029a57604036600319011261029a5760043561309e613836565b8160005260076020526130b8600160406000200154613dda565b81600052600760205260406000209060018060a01b0316908160005260205260ff60406000205416156130e757005b8160005260076020526040600020816000526020526040600020600160ff1982541617905533917f2f8788117e7eff1d82e926ec794901d17c78024a50270940304540a733656f0d600080a4005b3461029a57613143366138c9565b81151580613373575b613155906148ca565b81600052602090600a825260ff61317581600d6040600020015416614972565b83600052600a835261319381600d6040600020015460181c166149cd565b83600052600a8352600d60406000200154818160081c161561333957816131be9160101c1615614926565b83600052600e835260406000203360005283526131e18160406000205416614baf565b836000526010835260406000203360005283528060406000205416613304576132299084600052600b8452604060002083600052845260076040600020015460081c16614b2b565b82600052600f8252604060002033600052825260406000205481146132bf577f2acce567deca3aabf56327adbb4524bd5318936eaefa69e3a5208ffda0cfec099160409184600052600b825282600020816000528252600483600020016132908154614ae1565b905584600052601082528260002033600052825282600020600160ff19825416179055825191338352820152a2005b60405162461bcd60e51b815260048101839052601d60248201527f43616e6e6f7420766f746520666f7220796f7572206f776e207465616d0000006044820152606490fd5b60405162461bcd60e51b815260048101849052600d60248201526c105b1c9958591e481d9bdd1959609a1b6044820152606490fd5b60405162461bcd60e51b81526004810185905260126024820152712b37ba34b7339034b9903737ba1037b832b760711b6044820152606490fd5b5060085482111561314c565b3461029a57602036600319011261029a5760043560005260076020526020600160406000200154604051908152f35b3461029a57610eb76133bf36613894565b916133d26133cd84336140f5565b614008565b6141bd565b3461029a57602036600319011261029a57600435801515806134da575b6133fd906148ca565b80600052600a602052600d604060002001805460ff8160181c166134955760ff81161561345a5763ff000000191663010000001790557f9f192d554aea3c677123a2bf99d1df66d520e3b66ca25acdc4d038f1fb7afb3d600080a2005b60405162461bcd60e51b81526020600482015260136024820152724576656e74206973206e6f742061637469766560681b6044820152606490fd5b60405162461bcd60e51b815260206004820152601760248201527f4576656e7420616c7265616479207075626c69736865640000000000000000006044820152606490fd5b506008548111156133f4565b3461029a57604036600319011261029a576134ff613820565b602435906001600160a01b03808061351685613fa7565b16921691808314613611578033149081156135ec575b501561358157600083815260046020526040902080546001600160a01b0319168317905561355983613fa7565b167f8c5be1e5ebec7d5bd14f71427d1e84f3dd0314c0f7b2291e5b200ac8c7c3b925600080a4005b60405162461bcd60e51b815260206004820152603d60248201527f4552433732313a20617070726f76652063616c6c6572206973206e6f7420746f60448201527f6b656e206f776e6572206f7220617070726f76656420666f7220616c6c0000006064820152608490fd5b9050600052600560205260406000203360005260205260ff604060002054168461352c565b60405162461bcd60e51b815260206004820152602160248201527f4552433732313a20617070726f76616c20746f2063757272656e74206f776e656044820152603960f91b6064820152608490fd5b3461029a57602036600319011261029a5760206126d9600435613fca565b3461029a57600036600319011261029a576040516000805461369f81613a1e565b80845290600190818116908115611a1957506001146136c857610eec84610ed88186038261397e565b600080805292507f290decd9548b62a8d60345a988386fc84ba6bc95484008f6362f93160ef3e5635b828410613709575050508101602001610ed8826119b0565b805460208587018101919091529093019281016136f1565b3461029a57606036600319011261029a576044356001600160a01b0381169081900361029a57600435600052600c6020526040600020602435600052602052604060002090600052602052602060ff604060002054166040519015158152f35b3461029a57602036600319011261029a576004359063ffffffff60e01b821680920361029a57602091637965db0b60e01b81149081156137c3575b5015158152f35b632483248360e11b8114915081156137dd575b50836137bc565b6380ac58cd60e01b81149150811561380f575b81156137fe575b50836137d6565b6301ffc9a760e01b149050836137f7565b635b5e139f60e01b811491506137f0565b600435906001600160a01b038216820361029a57565b602435906001600160a01b038216820361029a57565b60005b83811061385f5750506000910152565b818101518382015260200161384f565b906020916138888151809281855285808601910161384c565b601f01601f1916010190565b606090600319011261029a576001600160a01b0390600435828116810361029a5791602435908116810361029a579060443590565b604090600319011261029a576004359060243590565b6020908160408183019282815285518094520193019160005b828110613906575050505090565b8351855293810193928101926001016138f8565b80548210156139325760005260206000200190600090565b634e487b7160e01b600052603260045260246000fd5b602081019081106001600160401b03821117610ab957604052565b608081019081106001600160401b03821117610ab957604052565b90601f801991011681019081106001600160401b03821117610ab957604052565b6001600160401b038111610ab957601f01601f191660200190565b9291926139c68261399f565b916139d4604051938461397e565b82948184528183011161029a578281602093846000960137010152565b9080601f8301121561029a57816020613a0c933591016139ba565b90565b60243590811515820361029a57565b90600182811c92168015613a4e575b6020831014613a3857565b634e487b7160e01b600052602260045260246000fd5b91607f1691613a2d565b6040519060008260125491613a6c83613a1e565b80835292600190818116908115613ae25750600114613a95575b50613a939250038361397e565b565b601260009081529150600080516020614d228339815191525b848310613ac75750613a93935050810160200138613a86565b81935090816020925483858a01015201910190918592613aae565b905060209250613a9394915060ff191682840152151560051b82010138613a86565b9060405191826000825492613b1884613a1e565b908184526001948581169081600014613b855750600114613b42575b5050613a939250038361397e565b9093915060005260209081600020936000915b818310613b6d575050613a9393508201013880613b34565b85548884018501529485019487945091830191613b55565b915050613a9394506020925060ff191682840152151560051b8201013880613b34565b6001600160401b038111610ab95760051b60200190565b3360009081527fa70365933f78520ef41d6645ba61e509916296603327302d41466c063e8e2608602090815260408083205490927fa49807205ce4d355092ef5a8a18f56e8913cf4a201fbe287825b095693c217759160ff1615613c235750505050565b613c2c33614791565b91845190613c3982613963565b60428252848201926060368537825115613dc65760308453825190600191821015613dc65790607860218501536041915b818311613d5857505050613d16576048613d12938693613cf693613ce7985198899376020b1b1b2b9b9a1b7b73a3937b61d1030b1b1b7bab73a1604d1b8a860152613cbe815180928c60378901910161384c565b8401917001034b99036b4b9b9b4b733903937b6329607d1b60378401525180938684019061384c565b0103602881018752018561397e565b5192839262461bcd60e51b84526004840152602483019061386f565b0390fd5b60648486519062461bcd60e51b825280600483015260248201527f537472696e67733a20686578206c656e67746820696e73756666696369656e746044820152fd5b909192600f81166010811015613db2576f181899199a1a9b1b9c1cb0b131b232b360811b901a613d888587614780565b5360041c928015613d9e57600019019190613c6a565b634e487b7160e01b82526011600452602482fd5b634e487b7160e01b83526032600452602483fd5b634e487b7160e01b81526032600452602490fd5b60009080825260209060078252604092838120338252835260ff848220541615613e045750505050565b613e0d33614791565b91845190613e1a82613963565b60428252848201926060368537825115613dc65760308453825190600191821015613dc65790607860218501536041915b818311613e9f57505050613d16576048613d12938693613cf693613ce7985198899376020b1b1b2b9b9a1b7b73a3937b61d1030b1b1b7bab73a1604d1b8a860152613cbe815180928c60378901910161384c565b909192600f81166010811015613db2576f181899199a1a9b1b9c1cb0b131b232b360811b901a613ecf8587614780565b5360041c928015613d9e57600019019190613e4b565b906000918083526007602052604083209160018060a01b03169182845260205260ff604084205416613f1657505050565b8083526007602052604083208284526020526040832060ff1981541690557ff6391f5c32d9c69d2a47ea670b442974b53935d1edc7fd64eb21e047a839171b339380a4565b15613f6257565b60405162461bcd60e51b815260206004820152601860248201527f4552433732313a20696e76616c696420746f6b656e20494400000000000000006044820152606490fd5b6000908152600260205260409020546001600160a01b0316613a0c811515613f5b565b600081815260026020526040902054613fed906001600160a01b03161515613f5b565b6000908152600460205260409020546001600160a01b031690565b1561400f57565b60405162461bcd60e51b815260206004820152602d60248201527f4552433732313a2063616c6c6572206973206e6f7420746f6b656e206f776e6560448201526c1c881bdc88185c1c1c9bdd9959609a1b6064820152608490fd5b9061408e93929161407e6133cd84336140f5565b6140898383836141bd565b6143af565b1561409557565b60405162461bcd60e51b815260206004820152603260248201527f4552433732313a207472616e7366657220746f206e6f6e20455243373231526560448201527131b2b4bb32b91034b6b83632b6b2b73a32b960711b6064820152608490fd5b906001600160a01b03808061410984613fa7565b1693169183831493841561413c575b508315614126575b50505090565b61413291929350613fca565b1614388080614120565b909350600052600560205260406000208260005260205260ff604060002054169238614118565b1561416a57565b60405162461bcd60e51b815260206004820152602560248201527f4552433732313a207472616e736665722066726f6d20696e636f72726563742060448201526437bbb732b960d91b6064820152608490fd5b906141e5916141cb84613fa7565b6001600160a01b0393918416928492909183168414614163565b1691821561432e57811580156142f6575b1561428b57816142109161420986613fa7565b1614614163565b7fddf252ad1be2c89b69c2b068fc378daa952ba7f163c4a11628f55a4df523b3ef60008481526004602052604081206001600160601b0360a01b9081815416905583825260036020526040822060001981540190558482526040822060018154019055858252600260205284604083209182541617905580a4565b60405162461bcd60e51b815260206004820152603960248201527f4861636b6174686f6e506c6174666f726d3a204e4654732063616e206f6e6c7960448201527f206265207472616e736665727265642062792061646d696e73000000000000006064820152608490fd5b503360009081527fa70365933f78520ef41d6645ba61e509916296603327302d41466c063e8e2608602052604090205460ff166141f6565b60405162461bcd60e51b8152602060048201526024808201527f4552433732313a207472616e7366657220746f20746865207a65726f206164646044820152637265737360e01b6064820152608490fd5b3d156143aa573d906143908261399f565b9161439e604051938461397e565b82523d6000602084013e565b606090565b919290803b156144ef57604051630a85bd0160e11b8082523360048301526001600160a01b0394851660248301526044820195909552608060648201529160209183918290819061440490608483019061386f565b03916000968791165af1908290826144a0575b50506144925761442561437f565b8051908161448d5760405162461bcd60e51b815260206004820152603260248201527f4552433732313a207472616e7366657220746f206e6f6e20455243373231526560448201527131b2b4bb32b91034b6b83632b6b2b73a32b960711b6064820152608490fd5b602001fd5b6001600160e01b0319161490565b909192506020813d82116144e7575b816144bc6020938361397e565b810103126144e35751906001600160e01b0319821682036144e05750903880614417565b80fd5b5080fd5b3d91506144af565b50505050600190565b60008181526002602052604090205461451b906001600160a01b03161515613f5b565b806000526020600681526145326040600020613b04565b61453a613a58565b80519182156145fd5780516145e15750505060008281526002602052604090205461456f906001600160a01b03161515613f5b565b614577613a58565b8051909290600090156145cb575090614592613a0c92614605565b9260405193816145ab869351809286808701910161384c565b82016145bf8251809386808501910161384c565b0103808452018261397e565b92505050604051906145dc82613948565b815290565b82613a0c949395506145ab60405196879486808701910161384c565b935050505090565b806000917a184f03e93ff9f4daa797ed6e38ed64bf6a1f0100000000000000008082101561475f575b506d04ee2d6d415b85acef810000000080831015614750575b50662386f26fc1000080831015614741575b506305f5e10080831015614732575b5061271080831015614723575b506064821015614713575b600a80921015614709575b6001908160218186019561469e8761399f565b966146ac604051988961397e565b8088526146bb601f199161399f565b01366020890137860101905b6146d3575b5050505090565b600019019083906f181899199a1a9b1b9c1cb0b131b232b360811b8282061a835304918215614704579190826146c7565b6146cc565b916001019161468b565b9190606460029104910191614680565b60049193920491019138614675565b60089193920491019138614668565b60109193920491019138614659565b60209193920491019138614647565b60409350810491503861462e565b8181029291811591840414171561122757565b908151811015613932570160200190565b60405190606082018281106001600160401b03821117610ab957604052602a82526020820160403682378251156139325760309053815160019081101561393257607860218401536029905b8082116148315750506147ed5790565b606460405162461bcd60e51b815260206004820152602060248201527f537472696e67733a20686578206c656e67746820696e73756666696369656e746044820152fd5b9091600f8116601081101561488a576f181899199a1a9b1b9c1cb0b131b232b360811b901a6148608486614780565b5360041c9180156148755760001901906147dd565b60246000634e487b7160e01b81526011600452fd5b60246000634e487b7160e01b81526032600452fd5b8181106148aa575050565b6000815560010161489f565b9060ff8091169116019060ff821161122757565b156148d157565b60405162461bcd60e51b815260206004820152602760248201527f4861636b6174686f6e506c6174666f726d3a206576656e7420646f6573206e6f6044820152661d08195e1a5cdd60ca1b6064820152608490fd5b1561492d57565b60405162461bcd60e51b815260206004820152601960248201527f526573756c747320616c72656164792066696e616c697a6564000000000000006044820152606490fd5b1561497957565b60405162461bcd60e51b815260206004820152602660248201527f4861636b6174686f6e506c6174666f726d3a206576656e74206973206e6f742060448201526561637469766560d01b6064820152608490fd5b156149d457565b60405162461bcd60e51b815260206004820152602960248201527f4861636b6174686f6e506c6174666f726d3a206576656e74206973206e6f74206044820152681c1d589b1a5cda195960ba1b6064820152608490fd5b15614a3257565b60405162461bcd60e51b815260206004820152602b60248201527f4861636b6174686f6e506c6174666f726d3a20726567697374726174696f6e2060448201526a34b9903737ba1037b832b760a91b6064820152608490fd5b15614a9257565b60405162461bcd60e51b815260206004820152602160248201527f416c7265616479207265676973746572656420666f722074686973206576656e6044820152601d60fa1b6064820152608490fd5b60001981146112275760010190565b8054600160401b811015610ab957614b0d9160018201815561391a565b819291549060031b9160018060a01b03809116831b921b1916179055565b15614b3257565b60405162461bcd60e51b81526020600482015260136024820152721519585b48191bd95cc81b9bdd08195e1a5cdd606a1b6044820152606490fd5b15614b7457565b60405162461bcd60e51b8152602060048201526013602482015272115d995b9d081b9bdd081c1d589b1a5cda1959606a1b6044820152606490fd5b15614bb657565b60405162461bcd60e51b815260206004820152601d60248201527f4e6f74207265676973746572656420666f722074686973206576656e740000006044820152606490fd5b90614c0582613ba8565b614c12604051918261397e565b8281528092614c23601f1991613ba8565b0190602036910137565b80518210156139325760209160051b010190565b9190820391821161122757565b15614c5557565b60405162461bcd60e51b815260206004820152601560248201527414995cdd5b1d1cc81b9bdd08199a5b985b1a5e9959605a1b6044820152606490fd5b15614c9957565b60405162461bcd60e51b81526020600482015260146024820152732a32b0b69034b9903737ba1030903bb4b73732b960611b6044820152606490fd5b15614cdc57565b60405162461bcd60e51b815260206004820152601c60248201527f4552433732313a20746f6b656e20616c7265616479206d696e746564000000006044820152606490fdfebb8a6a4669ba250d26cd7a459eca9d215f8307e33aebe50379bc5a3617ec3444a264697066735822122070e450163e4e0b332b51b6e4f2a42f30f533b37c5f322d64946153f0fd8fff0564736f6c634300081400332f8788117e7eff1d82e926ec794901d17c78024a50270940304540a733656f0d",
  "linkReferences": {},
  "deployedLinkReferences": {}
}